{
	"contracts/QueueSystem.sol": {
		"QueueSystem": {
			"abi": [
				{
					"inputs": [
						{
							"internalType": "address",
							"name": "_owner",
							"type": "address"
						}
					],
					"stateMutability": "nonpayable",
					"type": "constructor"
				},
				{
					"anonymous": false,
					"inputs": [
						{
							"indexed": true,
							"internalType": "address",
							"name": "user",
							"type": "address"
						},
						{
							"indexed": false,
							"internalType": "uint256",
							"name": "queueNumber",
							"type": "uint256"
						}
					],
					"name": "JoinedQueue",
					"type": "event"
				},
				{
					"anonymous": false,
					"inputs": [
						{
							"indexed": true,
							"internalType": "address",
							"name": "user",
							"type": "address"
						},
						{
							"indexed": false,
							"internalType": "uint256",
							"name": "newPosition",
							"type": "uint256"
						}
					],
					"name": "UpgradedToVIP",
					"type": "event"
				},
				{
					"inputs": [],
					"name": "getFullQueue",
					"outputs": [
						{
							"internalType": "address[]",
							"name": "",
							"type": "address[]"
						}
					],
					"stateMutability": "view",
					"type": "function"
				},
				{
					"inputs": [
						{
							"internalType": "address",
							"name": "user",
							"type": "address"
						}
					],
					"name": "getQueueNumber",
					"outputs": [
						{
							"internalType": "uint256",
							"name": "",
							"type": "uint256"
						}
					],
					"stateMutability": "view",
					"type": "function"
				},
				{
					"inputs": [],
					"name": "getQueueSize",
					"outputs": [
						{
							"internalType": "uint256",
							"name": "",
							"type": "uint256"
						}
					],
					"stateMutability": "view",
					"type": "function"
				},
				{
					"inputs": [],
					"name": "joinQueue",
					"outputs": [],
					"stateMutability": "nonpayable",
					"type": "function"
				},
				{
					"inputs": [],
					"name": "owner",
					"outputs": [
						{
							"internalType": "address",
							"name": "",
							"type": "address"
						}
					],
					"stateMutability": "view",
					"type": "function"
				},
				{
					"inputs": [
						{
							"internalType": "uint256",
							"name": "",
							"type": "uint256"
						}
					],
					"name": "queue",
					"outputs": [
						{
							"internalType": "address",
							"name": "",
							"type": "address"
						}
					],
					"stateMutability": "view",
					"type": "function"
				},
				{
					"inputs": [],
					"name": "upgradeToVIP",
					"outputs": [],
					"stateMutability": "payable",
					"type": "function"
				},
				{
					"inputs": [
						{
							"internalType": "address",
							"name": "",
							"type": "address"
						}
					],
					"name": "users",
					"outputs": [
						{
							"internalType": "uint256",
							"name": "queueNumber",
							"type": "uint256"
						},
						{
							"internalType": "bool",
							"name": "isVIP",
							"type": "bool"
						},
						{
							"internalType": "uint256",
							"name": "vipPaymentTime",
							"type": "uint256"
						}
					],
					"stateMutability": "view",
					"type": "function"
				},
				{
					"inputs": [],
					"name": "vipCost",
					"outputs": [
						{
							"internalType": "uint256",
							"name": "",
							"type": "uint256"
						}
					],
					"stateMutability": "view",
					"type": "function"
				}
			],
			"devdoc": {
				"kind": "dev",
				"methods": {
					"getQueueNumber(address)": {
						"returns": {
							"_0": "The queue number of the user"
						}
					},
					"getQueueSize()": {
						"returns": {
							"_0": "The total number of users in the queue"
						}
					}
				},
				"version": 1
			},
			"evm": {
				"assembly": "    /* \"contracts/QueueSystem.sol\":58:4211  contract QueueSystem {... */\n  mstore(0x40, 0x80)\n    /* \"contracts/QueueSystem.sol\":642:654  0.0001 ether */\n  0x5af3107a4000\n    /* \"contracts/QueueSystem.sol\":617:654  uint256 public vipCost = 0.0001 ether */\n  0x03\n  sstore\n    /* \"contracts/QueueSystem.sol\":859:1046  constructor(address _owner) {... */\n  callvalue\n  dup1\n  iszero\n  tag_1\n  jumpi\n  0x00\n  dup1\n  revert\ntag_1:\n  pop\n  mload(0x40)\n  sub(codesize, bytecodeSize)\n  dup1\n  bytecodeSize\n  dup4\n  codecopy\n  dup2\n  dup2\n  add\n  0x40\n  mstore\n  dup2\n  add\n  swap1\n  tag_2\n  swap2\n  swap1\n  tag_3\n  jump\t// in\ntag_2:\n    /* \"contracts/QueueSystem.sol\":923:924  0 */\n  0x00\n    /* \"contracts/QueueSystem.sol\":905:925  _owner != address(0) */\n  0xffffffffffffffffffffffffffffffffffffffff\n  and\n    /* \"contracts/QueueSystem.sol\":905:911  _owner */\n  dup2\n    /* \"contracts/QueueSystem.sol\":905:925  _owner != address(0) */\n  0xffffffffffffffffffffffffffffffffffffffff\n  and\n  sub\n    /* \"contracts/QueueSystem.sol\":897:951  require(_owner != address(0), \"Invalid owner address\") */\n  tag_6\n  jumpi\n  mload(0x40)\n  0x08c379a000000000000000000000000000000000000000000000000000000000\n  dup2\n  mstore\n  0x04\n  add\n  tag_7\n  swap1\n  tag_8\n  jump\t// in\ntag_7:\n  mload(0x40)\n  dup1\n  swap2\n  sub\n  swap1\n  revert\ntag_6:\n    /* \"contracts/QueueSystem.sol\":1006:1012  _owner */\n  dup1\n    /* \"contracts/QueueSystem.sol\":998:1003  owner */\n  0x02\n  0x00\n    /* \"contracts/QueueSystem.sol\":998:1012  owner = _owner */\n  0x0100\n  exp\n  dup2\n  sload\n  dup2\n  0xffffffffffffffffffffffffffffffffffffffff\n  mul\n  not\n  and\n  swap1\n  dup4\n  0xffffffffffffffffffffffffffffffffffffffff\n  and\n  mul\n  or\n  swap1\n  sstore\n  pop\n    /* \"contracts/QueueSystem.sol\":859:1046  constructor(address _owner) {... */\n  pop\n    /* \"contracts/QueueSystem.sol\":58:4211  contract QueueSystem {... */\n  jump(tag_9)\n    /* \"#utility.yul\":88:205   */\ntag_11:\n    /* \"#utility.yul\":197:198   */\n  0x00\n    /* \"#utility.yul\":194:195   */\n  dup1\n    /* \"#utility.yul\":187:199   */\n  revert\n    /* \"#utility.yul\":334:460   */\ntag_13:\n    /* \"#utility.yul\":371:378   */\n  0x00\n    /* \"#utility.yul\":411:453   */\n  0xffffffffffffffffffffffffffffffffffffffff\n    /* \"#utility.yul\":404:409   */\n  dup3\n    /* \"#utility.yul\":400:454   */\n  and\n    /* \"#utility.yul\":389:454   */\n  swap1\n  pop\n    /* \"#utility.yul\":334:460   */\n  swap2\n  swap1\n  pop\n  jump\t// out\n    /* \"#utility.yul\":466:562   */\ntag_14:\n    /* \"#utility.yul\":503:510   */\n  0x00\n    /* \"#utility.yul\":532:556   */\n  tag_26\n    /* \"#utility.yul\":550:555   */\n  dup3\n    /* \"#utility.yul\":532:556   */\n  tag_13\n  jump\t// in\ntag_26:\n    /* \"#utility.yul\":521:556   */\n  swap1\n  pop\n    /* \"#utility.yul\":466:562   */\n  swap2\n  swap1\n  pop\n  jump\t// out\n    /* \"#utility.yul\":568:690   */\ntag_15:\n    /* \"#utility.yul\":641:665   */\n  tag_28\n    /* \"#utility.yul\":659:664   */\n  dup2\n    /* \"#utility.yul\":641:665   */\n  tag_14\n  jump\t// in\ntag_28:\n    /* \"#utility.yul\":634:639   */\n  dup2\n    /* \"#utility.yul\":631:666   */\n  eq\n    /* \"#utility.yul\":621:684   */\n  tag_29\n  jumpi\n    /* \"#utility.yul\":680:681   */\n  0x00\n    /* \"#utility.yul\":677:678   */\n  dup1\n    /* \"#utility.yul\":670:682   */\n  revert\n    /* \"#utility.yul\":621:684   */\ntag_29:\n    /* \"#utility.yul\":568:690   */\n  pop\n  jump\t// out\n    /* \"#utility.yul\":696:839   */\ntag_16:\n    /* \"#utility.yul\":753:758   */\n  0x00\n    /* \"#utility.yul\":784:790   */\n  dup2\n    /* \"#utility.yul\":778:791   */\n  mload\n    /* \"#utility.yul\":769:791   */\n  swap1\n  pop\n    /* \"#utility.yul\":800:833   */\n  tag_31\n    /* \"#utility.yul\":827:832   */\n  dup2\n    /* \"#utility.yul\":800:833   */\n  tag_15\n  jump\t// in\ntag_31:\n    /* \"#utility.yul\":696:839   */\n  swap3\n  swap2\n  pop\n  pop\n  jump\t// out\n    /* \"#utility.yul\":845:1196   */\ntag_3:\n    /* \"#utility.yul\":915:921   */\n  0x00\n    /* \"#utility.yul\":964:966   */\n  0x20\n    /* \"#utility.yul\":952:961   */\n  dup3\n    /* \"#utility.yul\":943:950   */\n  dup5\n    /* \"#utility.yul\":939:962   */\n  sub\n    /* \"#utility.yul\":935:967   */\n  slt\n    /* \"#utility.yul\":932:1051   */\n  iszero\n  tag_33\n  jumpi\n    /* \"#utility.yul\":970:1049   */\n  tag_34\n  tag_11\n  jump\t// in\ntag_34:\n    /* \"#utility.yul\":932:1051   */\ntag_33:\n    /* \"#utility.yul\":1090:1091   */\n  0x00\n    /* \"#utility.yul\":1115:1179   */\n  tag_35\n    /* \"#utility.yul\":1171:1178   */\n  dup5\n    /* \"#utility.yul\":1162:1168   */\n  dup3\n    /* \"#utility.yul\":1151:1160   */\n  dup6\n    /* \"#utility.yul\":1147:1169   */\n  add\n    /* \"#utility.yul\":1115:1179   */\n  tag_16\n  jump\t// in\ntag_35:\n    /* \"#utility.yul\":1105:1179   */\n  swap2\n  pop\n    /* \"#utility.yul\":1061:1189   */\n  pop\n    /* \"#utility.yul\":845:1196   */\n  swap3\n  swap2\n  pop\n  pop\n  jump\t// out\n    /* \"#utility.yul\":1202:1371   */\ntag_17:\n    /* \"#utility.yul\":1286:1297   */\n  0x00\n    /* \"#utility.yul\":1320:1326   */\n  dup3\n    /* \"#utility.yul\":1315:1318   */\n  dup3\n    /* \"#utility.yul\":1308:1327   */\n  mstore\n    /* \"#utility.yul\":1360:1364   */\n  0x20\n    /* \"#utility.yul\":1355:1358   */\n  dup3\n    /* \"#utility.yul\":1351:1365   */\n  add\n    /* \"#utility.yul\":1336:1365   */\n  swap1\n  pop\n    /* \"#utility.yul\":1202:1371   */\n  swap3\n  swap2\n  pop\n  pop\n  jump\t// out\n    /* \"#utility.yul\":1377:1548   */\ntag_18:\n    /* \"#utility.yul\":1517:1540   */\n  0x496e76616c6964206f776e657220616464726573730000000000000000000000\n    /* \"#utility.yul\":1513:1514   */\n  0x00\n    /* \"#utility.yul\":1505:1511   */\n  dup3\n    /* \"#utility.yul\":1501:1515   */\n  add\n    /* \"#utility.yul\":1494:1541   */\n  mstore\n    /* \"#utility.yul\":1377:1548   */\n  pop\n  jump\t// out\n    /* \"#utility.yul\":1554:1920   */\ntag_19:\n    /* \"#utility.yul\":1696:1699   */\n  0x00\n    /* \"#utility.yul\":1717:1784   */\n  tag_39\n    /* \"#utility.yul\":1781:1783   */\n  0x15\n    /* \"#utility.yul\":1776:1779   */\n  dup4\n    /* \"#utility.yul\":1717:1784   */\n  tag_17\n  jump\t// in\ntag_39:\n    /* \"#utility.yul\":1710:1784   */\n  swap2\n  pop\n    /* \"#utility.yul\":1793:1886   */\n  tag_40\n    /* \"#utility.yul\":1882:1885   */\n  dup3\n    /* \"#utility.yul\":1793:1886   */\n  tag_18\n  jump\t// in\ntag_40:\n    /* \"#utility.yul\":1911:1913   */\n  0x20\n    /* \"#utility.yul\":1906:1909   */\n  dup3\n    /* \"#utility.yul\":1902:1914   */\n  add\n    /* \"#utility.yul\":1895:1914   */\n  swap1\n  pop\n    /* \"#utility.yul\":1554:1920   */\n  swap2\n  swap1\n  pop\n  jump\t// out\n    /* \"#utility.yul\":1926:2345   */\ntag_8:\n    /* \"#utility.yul\":2092:2096   */\n  0x00\n    /* \"#utility.yul\":2130:2132   */\n  0x20\n    /* \"#utility.yul\":2119:2128   */\n  dup3\n    /* \"#utility.yul\":2115:2133   */\n  add\n    /* \"#utility.yul\":2107:2133   */\n  swap1\n  pop\n    /* \"#utility.yul\":2179:2188   */\n  dup2\n    /* \"#utility.yul\":2173:2177   */\n  dup2\n    /* \"#utility.yul\":2169:2189   */\n  sub\n    /* \"#utility.yul\":2165:2166   */\n  0x00\n    /* \"#utility.yul\":2154:2163   */\n  dup4\n    /* \"#utility.yul\":2150:2167   */\n  add\n    /* \"#utility.yul\":2143:2190   */\n  mstore\n    /* \"#utility.yul\":2207:2338   */\n  tag_42\n    /* \"#utility.yul\":2333:2337   */\n  dup2\n    /* \"#utility.yul\":2207:2338   */\n  tag_19\n  jump\t// in\ntag_42:\n    /* \"#utility.yul\":2199:2338   */\n  swap1\n  pop\n    /* \"#utility.yul\":1926:2345   */\n  swap2\n  swap1\n  pop\n  jump\t// out\n    /* \"contracts/QueueSystem.sol\":58:4211  contract QueueSystem {... */\ntag_9:\n  dataSize(sub_0)\n  dup1\n  dataOffset(sub_0)\n  0x00\n  codecopy\n  0x00\n  return\nstop\n\nsub_0: assembly {\n        /* \"contracts/QueueSystem.sol\":58:4211  contract QueueSystem {... */\n      mstore(0x40, 0x80)\n      jumpi(tag_1, lt(calldatasize, 0x04))\n      shr(0xe0, calldataload(0x00))\n      dup1\n      0x8da5cb5b\n      gt\n      tag_11\n      jumpi\n      dup1\n      0x8da5cb5b\n      eq\n      tag_6\n      jumpi\n      dup1\n      0x9fff00af\n      eq\n      tag_7\n      jumpi\n      dup1\n      0xa87430ba\n      eq\n      tag_8\n      jumpi\n      dup1\n      0xce348c6f\n      eq\n      tag_9\n      jumpi\n      dup1\n      0xddf0b009\n      eq\n      tag_10\n      jumpi\n      jump(tag_1)\n    tag_11:\n      dup1\n      0x5531940e\n      eq\n      tag_2\n      jumpi\n      dup1\n      0x55ec29cb\n      eq\n      tag_3\n      jumpi\n      dup1\n      0x5ecac9d4\n      eq\n      tag_4\n      jumpi\n      dup1\n      0x71fb1a79\n      eq\n      tag_5\n      jumpi\n    tag_1:\n      0x00\n      dup1\n      revert\n        /* \"contracts/QueueSystem.sol\":617:654  uint256 public vipCost = 0.0001 ether */\n    tag_2:\n      callvalue\n      dup1\n      iszero\n      tag_12\n      jumpi\n      0x00\n      dup1\n      revert\n    tag_12:\n      pop\n      tag_13\n      tag_14\n      jump\t// in\n    tag_13:\n      mload(0x40)\n      tag_15\n      swap2\n      swap1\n      tag_16\n      jump\t// in\n    tag_15:\n      mload(0x40)\n      dup1\n      swap2\n      sub\n      swap1\n      return\n        /* \"contracts/QueueSystem.sol\":4114:4208  function getFullQueue() external view returns (address[] memory) {... */\n    tag_3:\n      callvalue\n      dup1\n      iszero\n      tag_17\n      jumpi\n      0x00\n      dup1\n      revert\n    tag_17:\n      pop\n      tag_18\n      tag_19\n      jump\t// in\n    tag_18:\n      mload(0x40)\n      tag_20\n      swap2\n      swap1\n      tag_21\n      jump\t// in\n    tag_20:\n      mload(0x40)\n      dup1\n      swap2\n      sub\n      swap1\n      return\n        /* \"contracts/QueueSystem.sol\":1095:1580  function joinQueue() external {... */\n    tag_4:\n      callvalue\n      dup1\n      iszero\n      tag_22\n      jumpi\n      0x00\n      dup1\n      revert\n    tag_22:\n      pop\n      tag_23\n      tag_24\n      jump\t// in\n    tag_23:\n      stop\n        /* \"contracts/QueueSystem.sol\":3720:3837  function getQueueNumber(address user) external view returns (uint256) {... */\n    tag_5:\n      callvalue\n      dup1\n      iszero\n      tag_25\n      jumpi\n      0x00\n      dup1\n      revert\n    tag_25:\n      pop\n      tag_26\n      0x04\n      dup1\n      calldatasize\n      sub\n      dup2\n      add\n      swap1\n      tag_27\n      swap2\n      swap1\n      tag_28\n      jump\t// in\n    tag_27:\n      tag_29\n      jump\t// in\n    tag_26:\n      mload(0x40)\n      tag_30\n      swap2\n      swap1\n      tag_16\n      jump\t// in\n    tag_30:\n      mload(0x40)\n      dup1\n      swap2\n      sub\n      swap1\n      return\n        /* \"contracts/QueueSystem.sol\":559:579  address public owner */\n    tag_6:\n      callvalue\n      dup1\n      iszero\n      tag_31\n      jumpi\n      0x00\n      dup1\n      revert\n    tag_31:\n      pop\n      tag_32\n      tag_33\n      jump\t// in\n    tag_32:\n      mload(0x40)\n      tag_34\n      swap2\n      swap1\n      tag_35\n      jump\t// in\n    tag_34:\n      mload(0x40)\n      dup1\n      swap2\n      sub\n      swap1\n      return\n        /* \"contracts/QueueSystem.sol\":1638:3616  function upgradeToVIP() external payable {... */\n    tag_7:\n      tag_36\n      tag_37\n      jump\t// in\n    tag_36:\n      stop\n        /* \"contracts/QueueSystem.sol\":385:422  mapping(address => User) public users */\n    tag_8:\n      callvalue\n      dup1\n      iszero\n      tag_38\n      jumpi\n      0x00\n      dup1\n      revert\n    tag_38:\n      pop\n      tag_39\n      0x04\n      dup1\n      calldatasize\n      sub\n      dup2\n      add\n      swap1\n      tag_40\n      swap2\n      swap1\n      tag_28\n      jump\t// in\n    tag_40:\n      tag_41\n      jump\t// in\n    tag_39:\n      mload(0x40)\n      tag_42\n      swap4\n      swap3\n      swap2\n      swap1\n      tag_43\n      jump\t// in\n    tag_42:\n      mload(0x40)\n      dup1\n      swap2\n      sub\n      swap1\n      return\n        /* \"contracts/QueueSystem.sol\":3933:4025  function getQueueSize() external view returns (uint256) {... */\n    tag_9:\n      callvalue\n      dup1\n      iszero\n      tag_44\n      jumpi\n      0x00\n      dup1\n      revert\n    tag_44:\n      pop\n      tag_45\n      tag_46\n      jump\t// in\n    tag_45:\n      mload(0x40)\n      tag_47\n      swap2\n      swap1\n      tag_16\n      jump\t// in\n    tag_47:\n      mload(0x40)\n      dup1\n      swap2\n      sub\n      swap1\n      return\n        /* \"contracts/QueueSystem.sol\":483:505  address[] public queue */\n    tag_10:\n      callvalue\n      dup1\n      iszero\n      tag_48\n      jumpi\n      0x00\n      dup1\n      revert\n    tag_48:\n      pop\n      tag_49\n      0x04\n      dup1\n      calldatasize\n      sub\n      dup2\n      add\n      swap1\n      tag_50\n      swap2\n      swap1\n      tag_51\n      jump\t// in\n    tag_50:\n      tag_52\n      jump\t// in\n    tag_49:\n      mload(0x40)\n      tag_53\n      swap2\n      swap1\n      tag_35\n      jump\t// in\n    tag_53:\n      mload(0x40)\n      dup1\n      swap2\n      sub\n      swap1\n      return\n        /* \"contracts/QueueSystem.sol\":617:654  uint256 public vipCost = 0.0001 ether */\n    tag_14:\n      sload(0x03)\n      dup2\n      jump\t// out\n        /* \"contracts/QueueSystem.sol\":4114:4208  function getFullQueue() external view returns (address[] memory) {... */\n    tag_19:\n        /* \"contracts/QueueSystem.sol\":4161:4177  address[] memory */\n      0x60\n        /* \"contracts/QueueSystem.sol\":4196:4201  queue */\n      0x01\n        /* \"contracts/QueueSystem.sol\":4189:4201  return queue */\n      dup1\n      sload\n      dup1\n      0x20\n      mul\n      0x20\n      add\n      mload(0x40)\n      swap1\n      dup2\n      add\n      0x40\n      mstore\n      dup1\n      swap3\n      swap2\n      swap1\n      dup2\n      dup2\n      mstore\n      0x20\n      add\n      dup3\n      dup1\n      sload\n      dup1\n      iszero\n      tag_55\n      jumpi\n      0x20\n      mul\n      dup3\n      add\n      swap2\n      swap1\n      0x00\n      mstore\n      keccak256(0x00, 0x20)\n      swap1\n    tag_56:\n      dup2\n      0x00\n      swap1\n      sload\n      swap1\n      0x0100\n      exp\n      swap1\n      div\n      0xffffffffffffffffffffffffffffffffffffffff\n      and\n      0xffffffffffffffffffffffffffffffffffffffff\n      and\n      dup2\n      mstore\n      0x20\n      add\n      swap1\n      0x01\n      add\n      swap1\n      dup1\n      dup4\n      gt\n      tag_56\n      jumpi\n    tag_55:\n      pop\n      pop\n      pop\n      pop\n      pop\n      swap1\n      pop\n        /* \"contracts/QueueSystem.sol\":4114:4208  function getFullQueue() external view returns (address[] memory) {... */\n      swap1\n      jump\t// out\n        /* \"contracts/QueueSystem.sol\":1095:1580  function joinQueue() external {... */\n    tag_24:\n        /* \"contracts/QueueSystem.sol\":1236:1237  0 */\n      0x00\n        /* \"contracts/QueueSystem.sol\":1203:1208  users */\n      dup1\n        /* \"contracts/QueueSystem.sol\":1203:1220  users[msg.sender] */\n      0x00\n        /* \"contracts/QueueSystem.sol\":1209:1219  msg.sender */\n      caller\n        /* \"contracts/QueueSystem.sol\":1203:1220  users[msg.sender] */\n      0xffffffffffffffffffffffffffffffffffffffff\n      and\n      0xffffffffffffffffffffffffffffffffffffffff\n      and\n      dup2\n      mstore\n      0x20\n      add\n      swap1\n      dup2\n      mstore\n      0x20\n      add\n      0x00\n      keccak256\n        /* \"contracts/QueueSystem.sol\":1203:1232  users[msg.sender].queueNumber */\n      0x00\n      add\n      sload\n        /* \"contracts/QueueSystem.sol\":1203:1237  users[msg.sender].queueNumber == 0 */\n      eq\n        /* \"contracts/QueueSystem.sol\":1195:1258  require(users[msg.sender].queueNumber == 0, \"Already in queue\") */\n      tag_58\n      jumpi\n      mload(0x40)\n      0x08c379a000000000000000000000000000000000000000000000000000000000\n      dup2\n      mstore\n      0x04\n      add\n      tag_59\n      swap1\n      tag_60\n      jump\t// in\n    tag_59:\n      mload(0x40)\n      dup1\n      swap2\n      sub\n      swap1\n      revert\n    tag_58:\n        /* \"contracts/QueueSystem.sol\":1342:1364  uint256 newQueueNumber */\n      0x00\n        /* \"contracts/QueueSystem.sol\":1382:1383  1 */\n      0x01\n        /* \"contracts/QueueSystem.sol\":1367:1372  queue */\n      dup1\n        /* \"contracts/QueueSystem.sol\":1367:1379  queue.length */\n      dup1\n      sload\n      swap1\n      pop\n        /* \"contracts/QueueSystem.sol\":1367:1383  queue.length + 1 */\n      tag_61\n      swap2\n      swap1\n      tag_62\n      jump\t// in\n    tag_61:\n        /* \"contracts/QueueSystem.sol\":1342:1383  uint256 newQueueNumber = queue.length + 1 */\n      swap1\n      pop\n        /* \"contracts/QueueSystem.sol\":1413:1443  User(newQueueNumber, false, 0) */\n      mload(0x40)\n      dup1\n      0x60\n      add\n      0x40\n      mstore\n      dup1\n        /* \"contracts/QueueSystem.sol\":1418:1432  newQueueNumber */\n      dup3\n        /* \"contracts/QueueSystem.sol\":1413:1443  User(newQueueNumber, false, 0) */\n      dup2\n      mstore\n      0x20\n      add\n        /* \"contracts/QueueSystem.sol\":1434:1439  false */\n      0x00\n        /* \"contracts/QueueSystem.sol\":1413:1443  User(newQueueNumber, false, 0) */\n      iszero\n      iszero\n      dup2\n      mstore\n      0x20\n      add\n        /* \"contracts/QueueSystem.sol\":1441:1442  0 */\n      0x00\n        /* \"contracts/QueueSystem.sol\":1413:1443  User(newQueueNumber, false, 0) */\n      dup2\n      mstore\n      pop\n        /* \"contracts/QueueSystem.sol\":1393:1398  users */\n      0x00\n        /* \"contracts/QueueSystem.sol\":1393:1410  users[msg.sender] */\n      dup1\n        /* \"contracts/QueueSystem.sol\":1399:1409  msg.sender */\n      caller\n        /* \"contracts/QueueSystem.sol\":1393:1410  users[msg.sender] */\n      0xffffffffffffffffffffffffffffffffffffffff\n      and\n      0xffffffffffffffffffffffffffffffffffffffff\n      and\n      dup2\n      mstore\n      0x20\n      add\n      swap1\n      dup2\n      mstore\n      0x20\n      add\n      0x00\n      keccak256\n        /* \"contracts/QueueSystem.sol\":1393:1443  users[msg.sender] = User(newQueueNumber, false, 0) */\n      0x00\n      dup3\n      add\n      mload\n      dup2\n      0x00\n      add\n      sstore\n      0x20\n      dup3\n      add\n      mload\n      dup2\n      0x01\n      add\n      exp(0x0100, 0x00)\n      dup2\n      sload\n      dup2\n      0xff\n      mul\n      not\n      and\n      swap1\n      dup4\n      iszero\n      iszero\n      mul\n      or\n      swap1\n      sstore\n      pop\n      0x40\n      dup3\n      add\n      mload\n      dup2\n      0x02\n      add\n      sstore\n      swap1\n      pop\n      pop\n        /* \"contracts/QueueSystem.sol\":1453:1458  queue */\n      0x01\n        /* \"contracts/QueueSystem.sol\":1464:1474  msg.sender */\n      caller\n        /* \"contracts/QueueSystem.sol\":1453:1475  queue.push(msg.sender) */\n      swap1\n      dup1\n      0x01\n      dup2\n      sload\n      add\n      dup1\n      dup3\n      sstore\n      dup1\n      swap2\n      pop\n      pop\n      0x01\n      swap1\n      sub\n      swap1\n      0x00\n      mstore\n      keccak256(0x00, 0x20)\n      add\n      0x00\n      swap1\n      swap2\n      swap1\n      swap2\n      swap1\n      swap2\n      0x0100\n      exp\n      dup2\n      sload\n      dup2\n      0xffffffffffffffffffffffffffffffffffffffff\n      mul\n      not\n      and\n      swap1\n      dup4\n      0xffffffffffffffffffffffffffffffffffffffff\n      and\n      mul\n      or\n      swap1\n      sstore\n      pop\n        /* \"contracts/QueueSystem.sol\":1532:1542  msg.sender */\n      caller\n        /* \"contracts/QueueSystem.sol\":1520:1559  JoinedQueue(msg.sender, newQueueNumber) */\n      0xffffffffffffffffffffffffffffffffffffffff\n      and\n      0x2a0cf68fb8eff8bff9b991c78bb921b9214ce5cc99496b8ac04885ff0e37ae23\n        /* \"contracts/QueueSystem.sol\":1544:1558  newQueueNumber */\n      dup3\n        /* \"contracts/QueueSystem.sol\":1520:1559  JoinedQueue(msg.sender, newQueueNumber) */\n      mload(0x40)\n      tag_64\n      swap2\n      swap1\n      tag_16\n      jump\t// in\n    tag_64:\n      mload(0x40)\n      dup1\n      swap2\n      sub\n      swap1\n      log2\n        /* \"contracts/QueueSystem.sol\":1125:1580  {... */\n      pop\n        /* \"contracts/QueueSystem.sol\":1095:1580  function joinQueue() external {... */\n      jump\t// out\n        /* \"contracts/QueueSystem.sol\":3720:3837  function getQueueNumber(address user) external view returns (uint256) {... */\n    tag_29:\n        /* \"contracts/QueueSystem.sol\":3781:3788  uint256 */\n      0x00\n        /* \"contracts/QueueSystem.sol\":3807:3812  users */\n      dup1\n        /* \"contracts/QueueSystem.sol\":3807:3818  users[user] */\n      0x00\n        /* \"contracts/QueueSystem.sol\":3813:3817  user */\n      dup4\n        /* \"contracts/QueueSystem.sol\":3807:3818  users[user] */\n      0xffffffffffffffffffffffffffffffffffffffff\n      and\n      0xffffffffffffffffffffffffffffffffffffffff\n      and\n      dup2\n      mstore\n      0x20\n      add\n      swap1\n      dup2\n      mstore\n      0x20\n      add\n      0x00\n      keccak256\n        /* \"contracts/QueueSystem.sol\":3807:3830  users[user].queueNumber */\n      0x00\n      add\n      sload\n        /* \"contracts/QueueSystem.sol\":3800:3830  return users[user].queueNumber */\n      swap1\n      pop\n        /* \"contracts/QueueSystem.sol\":3720:3837  function getQueueNumber(address user) external view returns (uint256) {... */\n      swap2\n      swap1\n      pop\n      jump\t// out\n        /* \"contracts/QueueSystem.sol\":559:579  address public owner */\n    tag_33:\n      0x02\n      0x00\n      swap1\n      sload\n      swap1\n      0x0100\n      exp\n      swap1\n      div\n      0xffffffffffffffffffffffffffffffffffffffff\n      and\n      dup2\n      jump\t// out\n        /* \"contracts/QueueSystem.sol\":1638:3616  function upgradeToVIP() external payable {... */\n    tag_37:\n        /* \"contracts/QueueSystem.sol\":1765:1766  0 */\n      0x00\n        /* \"contracts/QueueSystem.sol\":1732:1737  users */\n      dup1\n        /* \"contracts/QueueSystem.sol\":1732:1749  users[msg.sender] */\n      0x00\n        /* \"contracts/QueueSystem.sol\":1738:1748  msg.sender */\n      caller\n        /* \"contracts/QueueSystem.sol\":1732:1749  users[msg.sender] */\n      0xffffffffffffffffffffffffffffffffffffffff\n      and\n      0xffffffffffffffffffffffffffffffffffffffff\n      and\n      dup2\n      mstore\n      0x20\n      add\n      swap1\n      dup2\n      mstore\n      0x20\n      add\n      0x00\n      keccak256\n        /* \"contracts/QueueSystem.sol\":1732:1761  users[msg.sender].queueNumber */\n      0x00\n      add\n      sload\n        /* \"contracts/QueueSystem.sol\":1732:1766  users[msg.sender].queueNumber != 0 */\n      sub\n        /* \"contracts/QueueSystem.sol\":1724:1783  require(users[msg.sender].queueNumber != 0, \"Not in queue\") */\n      tag_67\n      jumpi\n      mload(0x40)\n      0x08c379a000000000000000000000000000000000000000000000000000000000\n      dup2\n      mstore\n      0x04\n      add\n      tag_68\n      swap1\n      tag_69\n      jump\t// in\n    tag_68:\n      mload(0x40)\n      dup1\n      swap2\n      sub\n      swap1\n      revert\n    tag_67:\n        /* \"contracts/QueueSystem.sol\":1843:1848  users */\n      0x00\n        /* \"contracts/QueueSystem.sol\":1843:1860  users[msg.sender] */\n      dup1\n        /* \"contracts/QueueSystem.sol\":1849:1859  msg.sender */\n      caller\n        /* \"contracts/QueueSystem.sol\":1843:1860  users[msg.sender] */\n      0xffffffffffffffffffffffffffffffffffffffff\n      and\n      0xffffffffffffffffffffffffffffffffffffffff\n      and\n      dup2\n      mstore\n      0x20\n      add\n      swap1\n      dup2\n      mstore\n      0x20\n      add\n      0x00\n      keccak256\n        /* \"contracts/QueueSystem.sol\":1843:1866  users[msg.sender].isVIP */\n      0x01\n      add\n      0x00\n      swap1\n      sload\n      swap1\n      0x0100\n      exp\n      swap1\n      div\n      0xff\n      and\n        /* \"contracts/QueueSystem.sol\":1842:1866  !users[msg.sender].isVIP */\n      iszero\n        /* \"contracts/QueueSystem.sol\":1834:1884  require(!users[msg.sender].isVIP, \"Already a VIP\") */\n      tag_70\n      jumpi\n      mload(0x40)\n      0x08c379a000000000000000000000000000000000000000000000000000000000\n      dup2\n      mstore\n      0x04\n      add\n      tag_71\n      swap1\n      tag_72\n      jump\t// in\n    tag_71:\n      mload(0x40)\n      dup1\n      swap2\n      sub\n      swap1\n      revert\n    tag_70:\n        /* \"contracts/QueueSystem.sol\":1976:1983  vipCost */\n      sload(0x03)\n        /* \"contracts/QueueSystem.sol\":1963:1972  msg.value */\n      callvalue\n        /* \"contracts/QueueSystem.sol\":1963:1983  msg.value == vipCost */\n      eq\n        /* \"contracts/QueueSystem.sol\":1955:2006  require(msg.value == vipCost, \"Incorrect VIP cost\") */\n      tag_73\n      jumpi\n      mload(0x40)\n      0x08c379a000000000000000000000000000000000000000000000000000000000\n      dup2\n      mstore\n      0x04\n      add\n      tag_74\n      swap1\n      tag_75\n      jump\t// in\n    tag_74:\n      mload(0x40)\n      dup1\n      swap2\n      sub\n      swap1\n      revert\n    tag_73:\n        /* \"contracts/QueueSystem.sol\":2066:2071  owner */\n      0x02\n      0x00\n      swap1\n      sload\n      swap1\n      0x0100\n      exp\n      swap1\n      div\n      0xffffffffffffffffffffffffffffffffffffffff\n      and\n        /* \"contracts/QueueSystem.sol\":2058:2081  payable(owner).transfer */\n      0xffffffffffffffffffffffffffffffffffffffff\n      and\n        /* \"contracts/QueueSystem.sol\":2058:2092  payable(owner).transfer(msg.value) */\n      0x08fc\n        /* \"contracts/QueueSystem.sol\":2082:2091  msg.value */\n      callvalue\n        /* \"contracts/QueueSystem.sol\":2058:2092  payable(owner).transfer(msg.value) */\n      swap1\n      dup2\n      iszero\n      mul\n      swap1\n      mload(0x40)\n      0x00\n      mload(0x40)\n      dup1\n      dup4\n      sub\n      dup2\n      dup6\n      dup9\n      dup9\n      call\n      swap4\n      pop\n      pop\n      pop\n      pop\n      iszero\n      dup1\n      iszero\n      tag_77\n      jumpi\n      returndatasize\n      0x00\n      dup1\n      returndatacopy\n      revert(0x00, returndatasize)\n    tag_77:\n      pop\n        /* \"contracts/QueueSystem.sol\":2156:2160  true */\n      0x01\n        /* \"contracts/QueueSystem.sol\":2130:2135  users */\n      0x00\n        /* \"contracts/QueueSystem.sol\":2130:2147  users[msg.sender] */\n      dup1\n        /* \"contracts/QueueSystem.sol\":2136:2146  msg.sender */\n      caller\n        /* \"contracts/QueueSystem.sol\":2130:2147  users[msg.sender] */\n      0xffffffffffffffffffffffffffffffffffffffff\n      and\n      0xffffffffffffffffffffffffffffffffffffffff\n      and\n      dup2\n      mstore\n      0x20\n      add\n      swap1\n      dup2\n      mstore\n      0x20\n      add\n      0x00\n      keccak256\n        /* \"contracts/QueueSystem.sol\":2130:2153  users[msg.sender].isVIP */\n      0x01\n      add\n      0x00\n        /* \"contracts/QueueSystem.sol\":2130:2160  users[msg.sender].isVIP = true */\n      0x0100\n      exp\n      dup2\n      sload\n      dup2\n      0xff\n      mul\n      not\n      and\n      swap1\n      dup4\n      iszero\n      iszero\n      mul\n      or\n      swap1\n      sstore\n      pop\n        /* \"contracts/QueueSystem.sol\":2202:2221  uint256 paymentTime */\n      0x00\n        /* \"contracts/QueueSystem.sol\":2224:2239  block.timestamp */\n      timestamp\n        /* \"contracts/QueueSystem.sol\":2202:2239  uint256 paymentTime = block.timestamp */\n      swap1\n      pop\n        /* \"contracts/QueueSystem.sol\":2280:2291  paymentTime */\n      dup1\n        /* \"contracts/QueueSystem.sol\":2245:2250  users */\n      0x00\n        /* \"contracts/QueueSystem.sol\":2245:2262  users[msg.sender] */\n      dup1\n        /* \"contracts/QueueSystem.sol\":2251:2261  msg.sender */\n      caller\n        /* \"contracts/QueueSystem.sol\":2245:2262  users[msg.sender] */\n      0xffffffffffffffffffffffffffffffffffffffff\n      and\n      0xffffffffffffffffffffffffffffffffffffffff\n      and\n      dup2\n      mstore\n      0x20\n      add\n      swap1\n      dup2\n      mstore\n      0x20\n      add\n      0x00\n      keccak256\n        /* \"contracts/QueueSystem.sol\":2245:2277  users[msg.sender].vipPaymentTime */\n      0x02\n      add\n        /* \"contracts/QueueSystem.sol\":2245:2291  users[msg.sender].vipPaymentTime = paymentTime */\n      dup2\n      swap1\n      sstore\n      pop\n        /* \"contracts/QueueSystem.sol\":2360:2386  address[] memory tempQueue */\n      0x00\n        /* \"contracts/QueueSystem.sol\":2403:2408  queue */\n      0x01\n        /* \"contracts/QueueSystem.sol\":2403:2415  queue.length */\n      dup1\n      sload\n      swap1\n      pop\n        /* \"contracts/QueueSystem.sol\":2389:2416  new address[](queue.length) */\n      0xffffffffffffffff\n      dup2\n      gt\n      iszero\n      tag_78\n      jumpi\n      tag_79\n      tag_80\n      jump\t// in\n    tag_79:\n    tag_78:\n      mload(0x40)\n      swap1\n      dup1\n      dup3\n      mstore\n      dup1\n      0x20\n      mul\n      0x20\n      add\n      dup3\n      add\n      0x40\n      mstore\n      dup1\n      iszero\n      tag_81\n      jumpi\n      dup2\n      0x20\n      add\n      0x20\n      dup3\n      mul\n      dup1\n      calldatasize\n      dup4\n      calldatacopy\n      dup1\n      dup3\n      add\n      swap2\n      pop\n      pop\n      swap1\n      pop\n    tag_81:\n      pop\n        /* \"contracts/QueueSystem.sol\":2360:2416  address[] memory tempQueue = new address[](queue.length) */\n      swap1\n      pop\n        /* \"contracts/QueueSystem.sol\":2422:2439  uint256 tempIndex */\n      0x00\n        /* \"contracts/QueueSystem.sol\":2510:2519  uint256 i */\n      dup1\n        /* \"contracts/QueueSystem.sol\":2505:2672  for (uint256 i = 0; i < queue.length; i++) {... */\n    tag_82:\n        /* \"contracts/QueueSystem.sol\":2529:2534  queue */\n      0x01\n        /* \"contracts/QueueSystem.sol\":2529:2541  queue.length */\n      dup1\n      sload\n      swap1\n      pop\n        /* \"contracts/QueueSystem.sol\":2525:2526  i */\n      dup2\n        /* \"contracts/QueueSystem.sol\":2525:2541  i < queue.length */\n      lt\n        /* \"contracts/QueueSystem.sol\":2505:2672  for (uint256 i = 0; i < queue.length; i++) {... */\n      iszero\n      tag_83\n      jumpi\n        /* \"contracts/QueueSystem.sol\":2562:2567  users */\n      0x00\n        /* \"contracts/QueueSystem.sol\":2562:2577  users[queue[i]] */\n      dup1\n        /* \"contracts/QueueSystem.sol\":2568:2573  queue */\n      0x01\n        /* \"contracts/QueueSystem.sol\":2574:2575  i */\n      dup4\n        /* \"contracts/QueueSystem.sol\":2568:2576  queue[i] */\n      dup2\n      sload\n      dup2\n      lt\n      tag_85\n      jumpi\n      tag_86\n      tag_87\n      jump\t// in\n    tag_86:\n    tag_85:\n      swap1\n      0x00\n      mstore\n      keccak256(0x00, 0x20)\n      add\n      0x00\n      swap1\n      sload\n      swap1\n      0x0100\n      exp\n      swap1\n      div\n      0xffffffffffffffffffffffffffffffffffffffff\n      and\n        /* \"contracts/QueueSystem.sol\":2562:2577  users[queue[i]] */\n      0xffffffffffffffffffffffffffffffffffffffff\n      and\n      0xffffffffffffffffffffffffffffffffffffffff\n      and\n      dup2\n      mstore\n      0x20\n      add\n      swap1\n      dup2\n      mstore\n      0x20\n      add\n      0x00\n      keccak256\n        /* \"contracts/QueueSystem.sol\":2562:2583  users[queue[i]].isVIP */\n      0x01\n      add\n      0x00\n      swap1\n      sload\n      swap1\n      0x0100\n      exp\n      swap1\n      div\n      0xff\n      and\n        /* \"contracts/QueueSystem.sol\":2558:2666  if (users[queue[i]].isVIP) {... */\n      iszero\n      tag_89\n      jumpi\n        /* \"contracts/QueueSystem.sol\":2622:2627  queue */\n      0x01\n        /* \"contracts/QueueSystem.sol\":2628:2629  i */\n      dup2\n        /* \"contracts/QueueSystem.sol\":2622:2630  queue[i] */\n      dup2\n      sload\n      dup2\n      lt\n      tag_90\n      jumpi\n      tag_91\n      tag_87\n      jump\t// in\n    tag_91:\n    tag_90:\n      swap1\n      0x00\n      mstore\n      keccak256(0x00, 0x20)\n      add\n      0x00\n      swap1\n      sload\n      swap1\n      0x0100\n      exp\n      swap1\n      div\n      0xffffffffffffffffffffffffffffffffffffffff\n      and\n        /* \"contracts/QueueSystem.sol\":2599:2608  tempQueue */\n      dup4\n        /* \"contracts/QueueSystem.sol\":2609:2618  tempIndex */\n      dup4\n        /* \"contracts/QueueSystem.sol\":2599:2619  tempQueue[tempIndex] */\n      dup2\n      mload\n      dup2\n      lt\n      tag_93\n      jumpi\n      tag_94\n      tag_87\n      jump\t// in\n    tag_94:\n    tag_93:\n      0x20\n      mul\n      0x20\n      add\n      add\n        /* \"contracts/QueueSystem.sol\":2599:2630  tempQueue[tempIndex] = queue[i] */\n      swap1\n      0xffffffffffffffffffffffffffffffffffffffff\n      and\n      swap1\n      dup2\n      0xffffffffffffffffffffffffffffffffffffffff\n      and\n      dup2\n      mstore\n      pop\n      pop\n        /* \"contracts/QueueSystem.sol\":2644:2655  tempIndex++ */\n      dup2\n      dup1\n      tag_95\n      swap1\n      tag_96\n      jump\t// in\n    tag_95:\n      swap3\n      pop\n      pop\n        /* \"contracts/QueueSystem.sol\":2558:2666  if (users[queue[i]].isVIP) {... */\n    tag_89:\n        /* \"contracts/QueueSystem.sol\":2543:2546  i++ */\n      dup1\n      dup1\n      0x01\n      add\n      swap2\n      pop\n      pop\n        /* \"contracts/QueueSystem.sol\":2505:2672  for (uint256 i = 0; i < queue.length; i++) {... */\n      jump(tag_82)\n    tag_83:\n      pop\n        /* \"contracts/QueueSystem.sol\":2725:2734  uint256 i */\n      0x00\n        /* \"contracts/QueueSystem.sol\":2720:3033  for (uint256 i = 0; i < tempIndex - 1; i++) {... */\n    tag_97:\n        /* \"contracts/QueueSystem.sol\":2756:2757  1 */\n      0x01\n        /* \"contracts/QueueSystem.sol\":2744:2753  tempIndex */\n      dup3\n        /* \"contracts/QueueSystem.sol\":2744:2757  tempIndex - 1 */\n      tag_100\n      swap2\n      swap1\n      tag_101\n      jump\t// in\n    tag_100:\n        /* \"contracts/QueueSystem.sol\":2740:2741  i */\n      dup2\n        /* \"contracts/QueueSystem.sol\":2740:2757  i < tempIndex - 1 */\n      lt\n        /* \"contracts/QueueSystem.sol\":2720:3033  for (uint256 i = 0; i < tempIndex - 1; i++) {... */\n      iszero\n      tag_98\n      jumpi\n        /* \"contracts/QueueSystem.sol\":2779:2788  uint256 j */\n      0x00\n        /* \"contracts/QueueSystem.sol\":2774:3027  for (uint256 j = 0; j < tempIndex - i - 1; j++) {... */\n    tag_102:\n        /* \"contracts/QueueSystem.sol\":2814:2815  1 */\n      0x01\n        /* \"contracts/QueueSystem.sol\":2810:2811  i */\n      dup3\n        /* \"contracts/QueueSystem.sol\":2798:2807  tempIndex */\n      dup5\n        /* \"contracts/QueueSystem.sol\":2798:2811  tempIndex - i */\n      tag_105\n      swap2\n      swap1\n      tag_101\n      jump\t// in\n    tag_105:\n        /* \"contracts/QueueSystem.sol\":2798:2815  tempIndex - i - 1 */\n      tag_106\n      swap2\n      swap1\n      tag_101\n      jump\t// in\n    tag_106:\n        /* \"contracts/QueueSystem.sol\":2794:2795  j */\n      dup2\n        /* \"contracts/QueueSystem.sol\":2794:2815  j < tempIndex - i - 1 */\n      lt\n        /* \"contracts/QueueSystem.sol\":2774:3027  for (uint256 j = 0; j < tempIndex - i - 1; j++) {... */\n      iszero\n      tag_103\n      jumpi\n        /* \"contracts/QueueSystem.sol\":2877:2882  users */\n      0x00\n        /* \"contracts/QueueSystem.sol\":2877:2900  users[tempQueue[j + 1]] */\n      dup1\n        /* \"contracts/QueueSystem.sol\":2883:2892  tempQueue */\n      dup6\n        /* \"contracts/QueueSystem.sol\":2897:2898  1 */\n      0x01\n        /* \"contracts/QueueSystem.sol\":2893:2894  j */\n      dup5\n        /* \"contracts/QueueSystem.sol\":2893:2898  j + 1 */\n      tag_107\n      swap2\n      swap1\n      tag_62\n      jump\t// in\n    tag_107:\n        /* \"contracts/QueueSystem.sol\":2883:2899  tempQueue[j + 1] */\n      dup2\n      mload\n      dup2\n      lt\n      tag_108\n      jumpi\n      tag_109\n      tag_87\n      jump\t// in\n    tag_109:\n    tag_108:\n      0x20\n      mul\n      0x20\n      add\n      add\n      mload\n        /* \"contracts/QueueSystem.sol\":2877:2900  users[tempQueue[j + 1]] */\n      0xffffffffffffffffffffffffffffffffffffffff\n      and\n      0xffffffffffffffffffffffffffffffffffffffff\n      and\n      dup2\n      mstore\n      0x20\n      add\n      swap1\n      dup2\n      mstore\n      0x20\n      add\n      0x00\n      keccak256\n        /* \"contracts/QueueSystem.sol\":2877:2915  users[tempQueue[j + 1]].vipPaymentTime */\n      0x02\n      add\n      sload\n        /* \"contracts/QueueSystem.sol\":2840:2845  users */\n      0x00\n        /* \"contracts/QueueSystem.sol\":2840:2859  users[tempQueue[j]] */\n      dup1\n        /* \"contracts/QueueSystem.sol\":2846:2855  tempQueue */\n      dup7\n        /* \"contracts/QueueSystem.sol\":2856:2857  j */\n      dup5\n        /* \"contracts/QueueSystem.sol\":2846:2858  tempQueue[j] */\n      dup2\n      mload\n      dup2\n      lt\n      tag_110\n      jumpi\n      tag_111\n      tag_87\n      jump\t// in\n    tag_111:\n    tag_110:\n      0x20\n      mul\n      0x20\n      add\n      add\n      mload\n        /* \"contracts/QueueSystem.sol\":2840:2859  users[tempQueue[j]] */\n      0xffffffffffffffffffffffffffffffffffffffff\n      and\n      0xffffffffffffffffffffffffffffffffffffffff\n      and\n      dup2\n      mstore\n      0x20\n      add\n      swap1\n      dup2\n      mstore\n      0x20\n      add\n      0x00\n      keccak256\n        /* \"contracts/QueueSystem.sol\":2840:2874  users[tempQueue[j]].vipPaymentTime */\n      0x02\n      add\n      sload\n        /* \"contracts/QueueSystem.sol\":2840:2915  users[tempQueue[j]].vipPaymentTime > users[tempQueue[j + 1]].vipPaymentTime */\n      gt\n        /* \"contracts/QueueSystem.sol\":2836:3017  if (users[tempQueue[j]].vipPaymentTime > users[tempQueue[j + 1]].vipPaymentTime) {... */\n      iszero\n      tag_112\n      jumpi\n        /* \"contracts/QueueSystem.sol\":2971:2980  tempQueue */\n      dup4\n        /* \"contracts/QueueSystem.sol\":2985:2986  1 */\n      0x01\n        /* \"contracts/QueueSystem.sol\":2981:2982  j */\n      dup3\n        /* \"contracts/QueueSystem.sol\":2981:2986  j + 1 */\n      tag_113\n      swap2\n      swap1\n      tag_62\n      jump\t// in\n    tag_113:\n        /* \"contracts/QueueSystem.sol\":2971:2987  tempQueue[j + 1] */\n      dup2\n      mload\n      dup2\n      lt\n      tag_114\n      jumpi\n      tag_115\n      tag_87\n      jump\t// in\n    tag_115:\n    tag_114:\n      0x20\n      mul\n      0x20\n      add\n      add\n      mload\n        /* \"contracts/QueueSystem.sol\":2989:2998  tempQueue */\n      dup5\n        /* \"contracts/QueueSystem.sol\":2999:3000  j */\n      dup3\n        /* \"contracts/QueueSystem.sol\":2989:3001  tempQueue[j] */\n      dup2\n      mload\n      dup2\n      lt\n      tag_116\n      jumpi\n      tag_117\n      tag_87\n      jump\t// in\n    tag_117:\n    tag_116:\n      0x20\n      mul\n      0x20\n      add\n      add\n      mload\n        /* \"contracts/QueueSystem.sol\":2936:2945  tempQueue */\n      dup6\n        /* \"contracts/QueueSystem.sol\":2946:2947  j */\n      dup4\n        /* \"contracts/QueueSystem.sol\":2936:2948  tempQueue[j] */\n      dup2\n      mload\n      dup2\n      lt\n      tag_118\n      jumpi\n      tag_119\n      tag_87\n      jump\t// in\n    tag_119:\n    tag_118:\n      0x20\n      mul\n      0x20\n      add\n      add\n        /* \"contracts/QueueSystem.sol\":2950:2959  tempQueue */\n      dup7\n        /* \"contracts/QueueSystem.sol\":2964:2965  1 */\n      0x01\n        /* \"contracts/QueueSystem.sol\":2960:2961  j */\n      dup6\n        /* \"contracts/QueueSystem.sol\":2960:2965  j + 1 */\n      tag_120\n      swap2\n      swap1\n      tag_62\n      jump\t// in\n    tag_120:\n        /* \"contracts/QueueSystem.sol\":2950:2966  tempQueue[j + 1] */\n      dup2\n      mload\n      dup2\n      lt\n      tag_121\n      jumpi\n      tag_122\n      tag_87\n      jump\t// in\n    tag_122:\n    tag_121:\n      0x20\n      mul\n      0x20\n      add\n      add\n        /* \"contracts/QueueSystem.sol\":2935:3002  (tempQueue[j], tempQueue[j + 1]) = (tempQueue[j + 1], tempQueue[j]) */\n      dup3\n      0xffffffffffffffffffffffffffffffffffffffff\n      and\n      0xffffffffffffffffffffffffffffffffffffffff\n      and\n      dup2\n      mstore\n      pop\n      dup3\n      0xffffffffffffffffffffffffffffffffffffffff\n      and\n      0xffffffffffffffffffffffffffffffffffffffff\n      and\n      dup2\n      mstore\n      pop\n      pop\n      pop\n        /* \"contracts/QueueSystem.sol\":2836:3017  if (users[tempQueue[j]].vipPaymentTime > users[tempQueue[j + 1]].vipPaymentTime) {... */\n    tag_112:\n        /* \"contracts/QueueSystem.sol\":2817:2820  j++ */\n      dup1\n      dup1\n      0x01\n      add\n      swap2\n      pop\n      pop\n        /* \"contracts/QueueSystem.sol\":2774:3027  for (uint256 j = 0; j < tempIndex - i - 1; j++) {... */\n      jump(tag_102)\n    tag_103:\n      pop\n        /* \"contracts/QueueSystem.sol\":2759:2762  i++ */\n      dup1\n      dup1\n      0x01\n      add\n      swap2\n      pop\n      pop\n        /* \"contracts/QueueSystem.sol\":2720:3033  for (uint256 i = 0; i < tempIndex - 1; i++) {... */\n      jump(tag_97)\n    tag_98:\n      pop\n        /* \"contracts/QueueSystem.sol\":3104:3113  uint256 i */\n      0x00\n        /* \"contracts/QueueSystem.sol\":3099:3267  for (uint256 i = 0; i < queue.length; i++) {... */\n    tag_123:\n        /* \"contracts/QueueSystem.sol\":3123:3128  queue */\n      0x01\n        /* \"contracts/QueueSystem.sol\":3123:3135  queue.length */\n      dup1\n      sload\n      swap1\n      pop\n        /* \"contracts/QueueSystem.sol\":3119:3120  i */\n      dup2\n        /* \"contracts/QueueSystem.sol\":3119:3135  i < queue.length */\n      lt\n        /* \"contracts/QueueSystem.sol\":3099:3267  for (uint256 i = 0; i < queue.length; i++) {... */\n      iszero\n      tag_124\n      jumpi\n        /* \"contracts/QueueSystem.sol\":3157:3162  users */\n      0x00\n        /* \"contracts/QueueSystem.sol\":3157:3172  users[queue[i]] */\n      dup1\n        /* \"contracts/QueueSystem.sol\":3163:3168  queue */\n      0x01\n        /* \"contracts/QueueSystem.sol\":3169:3170  i */\n      dup4\n        /* \"contracts/QueueSystem.sol\":3163:3171  queue[i] */\n      dup2\n      sload\n      dup2\n      lt\n      tag_126\n      jumpi\n      tag_127\n      tag_87\n      jump\t// in\n    tag_127:\n    tag_126:\n      swap1\n      0x00\n      mstore\n      keccak256(0x00, 0x20)\n      add\n      0x00\n      swap1\n      sload\n      swap1\n      0x0100\n      exp\n      swap1\n      div\n      0xffffffffffffffffffffffffffffffffffffffff\n      and\n        /* \"contracts/QueueSystem.sol\":3157:3172  users[queue[i]] */\n      0xffffffffffffffffffffffffffffffffffffffff\n      and\n      0xffffffffffffffffffffffffffffffffffffffff\n      and\n      dup2\n      mstore\n      0x20\n      add\n      swap1\n      dup2\n      mstore\n      0x20\n      add\n      0x00\n      keccak256\n        /* \"contracts/QueueSystem.sol\":3157:3178  users[queue[i]].isVIP */\n      0x01\n      add\n      0x00\n      swap1\n      sload\n      swap1\n      0x0100\n      exp\n      swap1\n      div\n      0xff\n      and\n        /* \"contracts/QueueSystem.sol\":3152:3261  if (!users[queue[i]].isVIP) {... */\n      tag_129\n      jumpi\n        /* \"contracts/QueueSystem.sol\":3217:3222  queue */\n      0x01\n        /* \"contracts/QueueSystem.sol\":3223:3224  i */\n      dup2\n        /* \"contracts/QueueSystem.sol\":3217:3225  queue[i] */\n      dup2\n      sload\n      dup2\n      lt\n      tag_130\n      jumpi\n      tag_131\n      tag_87\n      jump\t// in\n    tag_131:\n    tag_130:\n      swap1\n      0x00\n      mstore\n      keccak256(0x00, 0x20)\n      add\n      0x00\n      swap1\n      sload\n      swap1\n      0x0100\n      exp\n      swap1\n      div\n      0xffffffffffffffffffffffffffffffffffffffff\n      and\n        /* \"contracts/QueueSystem.sol\":3194:3203  tempQueue */\n      dup4\n        /* \"contracts/QueueSystem.sol\":3204:3213  tempIndex */\n      dup4\n        /* \"contracts/QueueSystem.sol\":3194:3214  tempQueue[tempIndex] */\n      dup2\n      mload\n      dup2\n      lt\n      tag_133\n      jumpi\n      tag_134\n      tag_87\n      jump\t// in\n    tag_134:\n    tag_133:\n      0x20\n      mul\n      0x20\n      add\n      add\n        /* \"contracts/QueueSystem.sol\":3194:3225  tempQueue[tempIndex] = queue[i] */\n      swap1\n      0xffffffffffffffffffffffffffffffffffffffff\n      and\n      swap1\n      dup2\n      0xffffffffffffffffffffffffffffffffffffffff\n      and\n      dup2\n      mstore\n      pop\n      pop\n        /* \"contracts/QueueSystem.sol\":3239:3250  tempIndex++ */\n      dup2\n      dup1\n      tag_135\n      swap1\n      tag_96\n      jump\t// in\n    tag_135:\n      swap3\n      pop\n      pop\n        /* \"contracts/QueueSystem.sol\":3152:3261  if (!users[queue[i]].isVIP) {... */\n    tag_129:\n        /* \"contracts/QueueSystem.sol\":3137:3140  i++ */\n      dup1\n      dup1\n      0x01\n      add\n      swap2\n      pop\n      pop\n        /* \"contracts/QueueSystem.sol\":3099:3267  for (uint256 i = 0; i < queue.length; i++) {... */\n      jump(tag_123)\n    tag_124:\n      pop\n        /* \"contracts/QueueSystem.sol\":3334:3343  tempQueue */\n      dup2\n        /* \"contracts/QueueSystem.sol\":3326:3331  queue */\n      0x01\n        /* \"contracts/QueueSystem.sol\":3326:3343  queue = tempQueue */\n      swap1\n      dup1\n      mload\n      swap1\n      0x20\n      add\n      swap1\n      tag_136\n      swap3\n      swap2\n      swap1\n      tag_137\n      jump\t// in\n    tag_136:\n      pop\n        /* \"contracts/QueueSystem.sol\":3397:3406  uint256 i */\n      0x00\n        /* \"contracts/QueueSystem.sol\":3392:3510  for (uint256 i = 0; i < queue.length; i++) {... */\n    tag_138:\n        /* \"contracts/QueueSystem.sol\":3416:3421  queue */\n      0x01\n        /* \"contracts/QueueSystem.sol\":3416:3428  queue.length */\n      dup1\n      sload\n      swap1\n      pop\n        /* \"contracts/QueueSystem.sol\":3412:3413  i */\n      dup2\n        /* \"contracts/QueueSystem.sol\":3412:3428  i < queue.length */\n      lt\n        /* \"contracts/QueueSystem.sol\":3392:3510  for (uint256 i = 0; i < queue.length; i++) {... */\n      iszero\n      tag_139\n      jumpi\n        /* \"contracts/QueueSystem.sol\":3479:3480  1 */\n      0x01\n        /* \"contracts/QueueSystem.sol\":3475:3476  i */\n      dup2\n        /* \"contracts/QueueSystem.sol\":3475:3480  i + 1 */\n      tag_141\n      swap2\n      swap1\n      tag_62\n      jump\t// in\n    tag_141:\n        /* \"contracts/QueueSystem.sol\":3445:3450  users */\n      0x00\n        /* \"contracts/QueueSystem.sol\":3445:3460  users[queue[i]] */\n      dup1\n        /* \"contracts/QueueSystem.sol\":3451:3456  queue */\n      0x01\n        /* \"contracts/QueueSystem.sol\":3457:3458  i */\n      dup5\n        /* \"contracts/QueueSystem.sol\":3451:3459  queue[i] */\n      dup2\n      sload\n      dup2\n      lt\n      tag_142\n      jumpi\n      tag_143\n      tag_87\n      jump\t// in\n    tag_143:\n    tag_142:\n      swap1\n      0x00\n      mstore\n      keccak256(0x00, 0x20)\n      add\n      0x00\n      swap1\n      sload\n      swap1\n      0x0100\n      exp\n      swap1\n      div\n      0xffffffffffffffffffffffffffffffffffffffff\n      and\n        /* \"contracts/QueueSystem.sol\":3445:3460  users[queue[i]] */\n      0xffffffffffffffffffffffffffffffffffffffff\n      and\n      0xffffffffffffffffffffffffffffffffffffffff\n      and\n      dup2\n      mstore\n      0x20\n      add\n      swap1\n      dup2\n      mstore\n      0x20\n      add\n      0x00\n      keccak256\n        /* \"contracts/QueueSystem.sol\":3445:3472  users[queue[i]].queueNumber */\n      0x00\n      add\n        /* \"contracts/QueueSystem.sol\":3445:3480  users[queue[i]].queueNumber = i + 1 */\n      dup2\n      swap1\n      sstore\n      pop\n        /* \"contracts/QueueSystem.sol\":3430:3433  i++ */\n      dup1\n      dup1\n      0x01\n      add\n      swap2\n      pop\n      pop\n        /* \"contracts/QueueSystem.sol\":3392:3510  for (uint256 i = 0; i < queue.length; i++) {... */\n      jump(tag_138)\n    tag_139:\n      pop\n        /* \"contracts/QueueSystem.sol\":3535:3545  msg.sender */\n      caller\n        /* \"contracts/QueueSystem.sol\":3521:3577  UpgradedToVIP(msg.sender, users[msg.sender].queueNumber) */\n      0xffffffffffffffffffffffffffffffffffffffff\n      and\n      0x04c5b3c2563dd2da1dae5ffa19c4657e3e03098e8dd6b1ea852c6dcb318afed8\n        /* \"contracts/QueueSystem.sol\":3547:3552  users */\n      0x00\n        /* \"contracts/QueueSystem.sol\":3547:3564  users[msg.sender] */\n      dup1\n        /* \"contracts/QueueSystem.sol\":3553:3563  msg.sender */\n      caller\n        /* \"contracts/QueueSystem.sol\":3547:3564  users[msg.sender] */\n      0xffffffffffffffffffffffffffffffffffffffff\n      and\n      0xffffffffffffffffffffffffffffffffffffffff\n      and\n      dup2\n      mstore\n      0x20\n      add\n      swap1\n      dup2\n      mstore\n      0x20\n      add\n      0x00\n      keccak256\n        /* \"contracts/QueueSystem.sol\":3547:3576  users[msg.sender].queueNumber */\n      0x00\n      add\n      sload\n        /* \"contracts/QueueSystem.sol\":3521:3577  UpgradedToVIP(msg.sender, users[msg.sender].queueNumber) */\n      mload(0x40)\n      tag_145\n      swap2\n      swap1\n      tag_16\n      jump\t// in\n    tag_145:\n      mload(0x40)\n      dup1\n      swap2\n      sub\n      swap1\n      log2\n        /* \"contracts/QueueSystem.sol\":1679:3616  {... */\n      pop\n      pop\n      pop\n        /* \"contracts/QueueSystem.sol\":1638:3616  function upgradeToVIP() external payable {... */\n      jump\t// out\n        /* \"contracts/QueueSystem.sol\":385:422  mapping(address => User) public users */\n    tag_41:\n      mstore(0x20, 0x00)\n      dup1\n      0x00\n      mstore\n      keccak256(0x00, 0x40)\n      0x00\n      swap2\n      pop\n      swap1\n      pop\n      dup1\n      0x00\n      add\n      sload\n      swap1\n      dup1\n      0x01\n      add\n      0x00\n      swap1\n      sload\n      swap1\n      0x0100\n      exp\n      swap1\n      div\n      0xff\n      and\n      swap1\n      dup1\n      0x02\n      add\n      sload\n      swap1\n      pop\n      dup4\n      jump\t// out\n        /* \"contracts/QueueSystem.sol\":3933:4025  function getQueueSize() external view returns (uint256) {... */\n    tag_46:\n        /* \"contracts/QueueSystem.sol\":3980:3987  uint256 */\n      0x00\n        /* \"contracts/QueueSystem.sol\":4006:4011  queue */\n      0x01\n        /* \"contracts/QueueSystem.sol\":4006:4018  queue.length */\n      dup1\n      sload\n      swap1\n      pop\n        /* \"contracts/QueueSystem.sol\":3999:4018  return queue.length */\n      swap1\n      pop\n        /* \"contracts/QueueSystem.sol\":3933:4025  function getQueueSize() external view returns (uint256) {... */\n      swap1\n      jump\t// out\n        /* \"contracts/QueueSystem.sol\":483:505  address[] public queue */\n    tag_52:\n      0x01\n      dup2\n      dup2\n      sload\n      dup2\n      lt\n      tag_147\n      jumpi\n      0x00\n      dup1\n      revert\n    tag_147:\n      swap1\n      0x00\n      mstore\n      keccak256(0x00, 0x20)\n      add\n      0x00\n      swap2\n      pop\n      sload\n      swap1\n      0x0100\n      exp\n      swap1\n      div\n      0xffffffffffffffffffffffffffffffffffffffff\n      and\n      dup2\n      jump\t// out\n    tag_137:\n      dup3\n      dup1\n      sload\n      dup3\n      dup3\n      sstore\n      swap1\n      0x00\n      mstore\n      keccak256(0x00, 0x20)\n      swap1\n      dup2\n      add\n      swap3\n      dup3\n      iszero\n      tag_149\n      jumpi\n      swap2\n      0x20\n      mul\n      dup3\n      add\n    tag_150:\n      dup3\n      dup2\n      gt\n      iszero\n      tag_151\n      jumpi\n      dup3\n      mload\n      dup3\n      exp(0x0100, 0x00)\n      dup2\n      sload\n      dup2\n      0xffffffffffffffffffffffffffffffffffffffff\n      mul\n      not\n      and\n      swap1\n      dup4\n      0xffffffffffffffffffffffffffffffffffffffff\n      and\n      mul\n      or\n      swap1\n      sstore\n      pop\n      swap2\n      0x20\n      add\n      swap2\n      swap1\n      0x01\n      add\n      swap1\n      jump(tag_150)\n    tag_151:\n    tag_149:\n      pop\n      swap1\n      pop\n      tag_152\n      swap2\n      swap1\n      tag_153\n      jump\t// in\n    tag_152:\n      pop\n      swap1\n      jump\t// out\n    tag_153:\n    tag_154:\n      dup1\n      dup3\n      gt\n      iszero\n      tag_155\n      jumpi\n      0x00\n      dup2\n      0x00\n      swap1\n      sstore\n      pop\n      0x01\n      add\n      jump(tag_154)\n    tag_155:\n      pop\n      swap1\n      jump\t// out\n        /* \"#utility.yul\":7:84   */\n    tag_156:\n        /* \"#utility.yul\":44:51   */\n      0x00\n        /* \"#utility.yul\":73:78   */\n      dup2\n        /* \"#utility.yul\":62:78   */\n      swap1\n      pop\n        /* \"#utility.yul\":7:84   */\n      swap2\n      swap1\n      pop\n      jump\t// out\n        /* \"#utility.yul\":90:208   */\n    tag_157:\n        /* \"#utility.yul\":177:201   */\n      tag_190\n        /* \"#utility.yul\":195:200   */\n      dup2\n        /* \"#utility.yul\":177:201   */\n      tag_156\n      jump\t// in\n    tag_190:\n        /* \"#utility.yul\":172:175   */\n      dup3\n        /* \"#utility.yul\":165:202   */\n      mstore\n        /* \"#utility.yul\":90:208   */\n      pop\n      pop\n      jump\t// out\n        /* \"#utility.yul\":214:436   */\n    tag_16:\n        /* \"#utility.yul\":307:311   */\n      0x00\n        /* \"#utility.yul\":345:347   */\n      0x20\n        /* \"#utility.yul\":334:343   */\n      dup3\n        /* \"#utility.yul\":330:348   */\n      add\n        /* \"#utility.yul\":322:348   */\n      swap1\n      pop\n        /* \"#utility.yul\":358:429   */\n      tag_192\n        /* \"#utility.yul\":426:427   */\n      0x00\n        /* \"#utility.yul\":415:424   */\n      dup4\n        /* \"#utility.yul\":411:428   */\n      add\n        /* \"#utility.yul\":402:408   */\n      dup5\n        /* \"#utility.yul\":358:429   */\n      tag_157\n      jump\t// in\n    tag_192:\n        /* \"#utility.yul\":214:436   */\n      swap3\n      swap2\n      pop\n      pop\n      jump\t// out\n        /* \"#utility.yul\":442:556   */\n    tag_158:\n        /* \"#utility.yul\":509:515   */\n      0x00\n        /* \"#utility.yul\":543:548   */\n      dup2\n        /* \"#utility.yul\":537:549   */\n      mload\n        /* \"#utility.yul\":527:549   */\n      swap1\n      pop\n        /* \"#utility.yul\":442:556   */\n      swap2\n      swap1\n      pop\n      jump\t// out\n        /* \"#utility.yul\":562:746   */\n    tag_159:\n        /* \"#utility.yul\":661:672   */\n      0x00\n        /* \"#utility.yul\":695:701   */\n      dup3\n        /* \"#utility.yul\":690:693   */\n      dup3\n        /* \"#utility.yul\":683:702   */\n      mstore\n        /* \"#utility.yul\":735:739   */\n      0x20\n        /* \"#utility.yul\":730:733   */\n      dup3\n        /* \"#utility.yul\":726:740   */\n      add\n        /* \"#utility.yul\":711:740   */\n      swap1\n      pop\n        /* \"#utility.yul\":562:746   */\n      swap3\n      swap2\n      pop\n      pop\n      jump\t// out\n        /* \"#utility.yul\":752:884   */\n    tag_160:\n        /* \"#utility.yul\":819:823   */\n      0x00\n        /* \"#utility.yul\":842:845   */\n      dup2\n        /* \"#utility.yul\":834:845   */\n      swap1\n      pop\n        /* \"#utility.yul\":872:876   */\n      0x20\n        /* \"#utility.yul\":867:870   */\n      dup3\n        /* \"#utility.yul\":863:877   */\n      add\n        /* \"#utility.yul\":855:877   */\n      swap1\n      pop\n        /* \"#utility.yul\":752:884   */\n      swap2\n      swap1\n      pop\n      jump\t// out\n        /* \"#utility.yul\":890:1016   */\n    tag_161:\n        /* \"#utility.yul\":927:934   */\n      0x00\n        /* \"#utility.yul\":967:1009   */\n      0xffffffffffffffffffffffffffffffffffffffff\n        /* \"#utility.yul\":960:965   */\n      dup3\n        /* \"#utility.yul\":956:1010   */\n      and\n        /* \"#utility.yul\":945:1010   */\n      swap1\n      pop\n        /* \"#utility.yul\":890:1016   */\n      swap2\n      swap1\n      pop\n      jump\t// out\n        /* \"#utility.yul\":1022:1118   */\n    tag_162:\n        /* \"#utility.yul\":1059:1066   */\n      0x00\n        /* \"#utility.yul\":1088:1112   */\n      tag_198\n        /* \"#utility.yul\":1106:1111   */\n      dup3\n        /* \"#utility.yul\":1088:1112   */\n      tag_161\n      jump\t// in\n    tag_198:\n        /* \"#utility.yul\":1077:1112   */\n      swap1\n      pop\n        /* \"#utility.yul\":1022:1118   */\n      swap2\n      swap1\n      pop\n      jump\t// out\n        /* \"#utility.yul\":1124:1232   */\n    tag_163:\n        /* \"#utility.yul\":1201:1225   */\n      tag_200\n        /* \"#utility.yul\":1219:1224   */\n      dup2\n        /* \"#utility.yul\":1201:1225   */\n      tag_162\n      jump\t// in\n    tag_200:\n        /* \"#utility.yul\":1196:1199   */\n      dup3\n        /* \"#utility.yul\":1189:1226   */\n      mstore\n        /* \"#utility.yul\":1124:1232   */\n      pop\n      pop\n      jump\t// out\n        /* \"#utility.yul\":1238:1417   */\n    tag_164:\n        /* \"#utility.yul\":1307:1317   */\n      0x00\n        /* \"#utility.yul\":1328:1374   */\n      tag_202\n        /* \"#utility.yul\":1370:1373   */\n      dup4\n        /* \"#utility.yul\":1362:1368   */\n      dup4\n        /* \"#utility.yul\":1328:1374   */\n      tag_163\n      jump\t// in\n    tag_202:\n        /* \"#utility.yul\":1406:1410   */\n      0x20\n        /* \"#utility.yul\":1401:1404   */\n      dup4\n        /* \"#utility.yul\":1397:1411   */\n      add\n        /* \"#utility.yul\":1383:1411   */\n      swap1\n      pop\n        /* \"#utility.yul\":1238:1417   */\n      swap3\n      swap2\n      pop\n      pop\n      jump\t// out\n        /* \"#utility.yul\":1423:1536   */\n    tag_165:\n        /* \"#utility.yul\":1493:1497   */\n      0x00\n        /* \"#utility.yul\":1525:1529   */\n      0x20\n        /* \"#utility.yul\":1520:1523   */\n      dup3\n        /* \"#utility.yul\":1516:1530   */\n      add\n        /* \"#utility.yul\":1508:1530   */\n      swap1\n      pop\n        /* \"#utility.yul\":1423:1536   */\n      swap2\n      swap1\n      pop\n      jump\t// out\n        /* \"#utility.yul\":1572:2304   */\n    tag_166:\n        /* \"#utility.yul\":1691:1694   */\n      0x00\n        /* \"#utility.yul\":1720:1774   */\n      tag_205\n        /* \"#utility.yul\":1768:1773   */\n      dup3\n        /* \"#utility.yul\":1720:1774   */\n      tag_158\n      jump\t// in\n    tag_205:\n        /* \"#utility.yul\":1790:1876   */\n      tag_206\n        /* \"#utility.yul\":1869:1875   */\n      dup2\n        /* \"#utility.yul\":1864:1867   */\n      dup6\n        /* \"#utility.yul\":1790:1876   */\n      tag_159\n      jump\t// in\n    tag_206:\n        /* \"#utility.yul\":1783:1876   */\n      swap4\n      pop\n        /* \"#utility.yul\":1900:1956   */\n      tag_207\n        /* \"#utility.yul\":1950:1955   */\n      dup4\n        /* \"#utility.yul\":1900:1956   */\n      tag_160\n      jump\t// in\n    tag_207:\n        /* \"#utility.yul\":1979:1986   */\n      dup1\n        /* \"#utility.yul\":2010:2011   */\n      0x00\n        /* \"#utility.yul\":1995:2279   */\n    tag_208:\n        /* \"#utility.yul\":2020:2026   */\n      dup4\n        /* \"#utility.yul\":2017:2018   */\n      dup2\n        /* \"#utility.yul\":2014:2027   */\n      lt\n        /* \"#utility.yul\":1995:2279   */\n      iszero\n      tag_210\n      jumpi\n        /* \"#utility.yul\":2096:2102   */\n      dup2\n        /* \"#utility.yul\":2090:2103   */\n      mload\n        /* \"#utility.yul\":2123:2186   */\n      tag_211\n        /* \"#utility.yul\":2182:2185   */\n      dup9\n        /* \"#utility.yul\":2167:2180   */\n      dup3\n        /* \"#utility.yul\":2123:2186   */\n      tag_164\n      jump\t// in\n    tag_211:\n        /* \"#utility.yul\":2116:2186   */\n      swap8\n      pop\n        /* \"#utility.yul\":2209:2269   */\n      tag_212\n        /* \"#utility.yul\":2262:2268   */\n      dup4\n        /* \"#utility.yul\":2209:2269   */\n      tag_165\n      jump\t// in\n    tag_212:\n        /* \"#utility.yul\":2199:2269   */\n      swap3\n      pop\n        /* \"#utility.yul\":2055:2279   */\n      pop\n        /* \"#utility.yul\":2042:2043   */\n      0x01\n        /* \"#utility.yul\":2039:2040   */\n      dup2\n        /* \"#utility.yul\":2035:2044   */\n      add\n        /* \"#utility.yul\":2030:2044   */\n      swap1\n      pop\n        /* \"#utility.yul\":1995:2279   */\n      jump(tag_208)\n    tag_210:\n        /* \"#utility.yul\":1999:2013   */\n      pop\n        /* \"#utility.yul\":2295:2298   */\n      dup6\n        /* \"#utility.yul\":2288:2298   */\n      swap4\n      pop\n        /* \"#utility.yul\":1696:2304   */\n      pop\n      pop\n      pop\n        /* \"#utility.yul\":1572:2304   */\n      swap3\n      swap2\n      pop\n      pop\n      jump\t// out\n        /* \"#utility.yul\":2310:2683   */\n    tag_21:\n        /* \"#utility.yul\":2453:2457   */\n      0x00\n        /* \"#utility.yul\":2491:2493   */\n      0x20\n        /* \"#utility.yul\":2480:2489   */\n      dup3\n        /* \"#utility.yul\":2476:2494   */\n      add\n        /* \"#utility.yul\":2468:2494   */\n      swap1\n      pop\n        /* \"#utility.yul\":2540:2549   */\n      dup2\n        /* \"#utility.yul\":2534:2538   */\n      dup2\n        /* \"#utility.yul\":2530:2550   */\n      sub\n        /* \"#utility.yul\":2526:2527   */\n      0x00\n        /* \"#utility.yul\":2515:2524   */\n      dup4\n        /* \"#utility.yul\":2511:2528   */\n      add\n        /* \"#utility.yul\":2504:2551   */\n      mstore\n        /* \"#utility.yul\":2568:2676   */\n      tag_214\n        /* \"#utility.yul\":2671:2675   */\n      dup2\n        /* \"#utility.yul\":2662:2668   */\n      dup5\n        /* \"#utility.yul\":2568:2676   */\n      tag_166\n      jump\t// in\n    tag_214:\n        /* \"#utility.yul\":2560:2676   */\n      swap1\n      pop\n        /* \"#utility.yul\":2310:2683   */\n      swap3\n      swap2\n      pop\n      pop\n      jump\t// out\n        /* \"#utility.yul\":2770:2887   */\n    tag_168:\n        /* \"#utility.yul\":2879:2880   */\n      0x00\n        /* \"#utility.yul\":2876:2877   */\n      dup1\n        /* \"#utility.yul\":2869:2881   */\n      revert\n        /* \"#utility.yul\":3016:3138   */\n    tag_170:\n        /* \"#utility.yul\":3089:3113   */\n      tag_219\n        /* \"#utility.yul\":3107:3112   */\n      dup2\n        /* \"#utility.yul\":3089:3113   */\n      tag_162\n      jump\t// in\n    tag_219:\n        /* \"#utility.yul\":3082:3087   */\n      dup2\n        /* \"#utility.yul\":3079:3114   */\n      eq\n        /* \"#utility.yul\":3069:3132   */\n      tag_220\n      jumpi\n        /* \"#utility.yul\":3128:3129   */\n      0x00\n        /* \"#utility.yul\":3125:3126   */\n      dup1\n        /* \"#utility.yul\":3118:3130   */\n      revert\n        /* \"#utility.yul\":3069:3132   */\n    tag_220:\n        /* \"#utility.yul\":3016:3138   */\n      pop\n      jump\t// out\n        /* \"#utility.yul\":3144:3283   */\n    tag_171:\n        /* \"#utility.yul\":3190:3195   */\n      0x00\n        /* \"#utility.yul\":3228:3234   */\n      dup2\n        /* \"#utility.yul\":3215:3235   */\n      calldataload\n        /* \"#utility.yul\":3206:3235   */\n      swap1\n      pop\n        /* \"#utility.yul\":3244:3277   */\n      tag_222\n        /* \"#utility.yul\":3271:3276   */\n      dup2\n        /* \"#utility.yul\":3244:3277   */\n      tag_170\n      jump\t// in\n    tag_222:\n        /* \"#utility.yul\":3144:3283   */\n      swap3\n      swap2\n      pop\n      pop\n      jump\t// out\n        /* \"#utility.yul\":3289:3618   */\n    tag_28:\n        /* \"#utility.yul\":3348:3354   */\n      0x00\n        /* \"#utility.yul\":3397:3399   */\n      0x20\n        /* \"#utility.yul\":3385:3394   */\n      dup3\n        /* \"#utility.yul\":3376:3383   */\n      dup5\n        /* \"#utility.yul\":3372:3395   */\n      sub\n        /* \"#utility.yul\":3368:3400   */\n      slt\n        /* \"#utility.yul\":3365:3484   */\n      iszero\n      tag_224\n      jumpi\n        /* \"#utility.yul\":3403:3482   */\n      tag_225\n      tag_168\n      jump\t// in\n    tag_225:\n        /* \"#utility.yul\":3365:3484   */\n    tag_224:\n        /* \"#utility.yul\":3523:3524   */\n      0x00\n        /* \"#utility.yul\":3548:3601   */\n      tag_226\n        /* \"#utility.yul\":3593:3600   */\n      dup5\n        /* \"#utility.yul\":3584:3590   */\n      dup3\n        /* \"#utility.yul\":3573:3582   */\n      dup6\n        /* \"#utility.yul\":3569:3591   */\n      add\n        /* \"#utility.yul\":3548:3601   */\n      tag_171\n      jump\t// in\n    tag_226:\n        /* \"#utility.yul\":3538:3601   */\n      swap2\n      pop\n        /* \"#utility.yul\":3494:3611   */\n      pop\n        /* \"#utility.yul\":3289:3618   */\n      swap3\n      swap2\n      pop\n      pop\n      jump\t// out\n        /* \"#utility.yul\":3624:3742   */\n    tag_172:\n        /* \"#utility.yul\":3711:3735   */\n      tag_228\n        /* \"#utility.yul\":3729:3734   */\n      dup2\n        /* \"#utility.yul\":3711:3735   */\n      tag_162\n      jump\t// in\n    tag_228:\n        /* \"#utility.yul\":3706:3709   */\n      dup3\n        /* \"#utility.yul\":3699:3736   */\n      mstore\n        /* \"#utility.yul\":3624:3742   */\n      pop\n      pop\n      jump\t// out\n        /* \"#utility.yul\":3748:3970   */\n    tag_35:\n        /* \"#utility.yul\":3841:3845   */\n      0x00\n        /* \"#utility.yul\":3879:3881   */\n      0x20\n        /* \"#utility.yul\":3868:3877   */\n      dup3\n        /* \"#utility.yul\":3864:3882   */\n      add\n        /* \"#utility.yul\":3856:3882   */\n      swap1\n      pop\n        /* \"#utility.yul\":3892:3963   */\n      tag_230\n        /* \"#utility.yul\":3960:3961   */\n      0x00\n        /* \"#utility.yul\":3949:3958   */\n      dup4\n        /* \"#utility.yul\":3945:3962   */\n      add\n        /* \"#utility.yul\":3936:3942   */\n      dup5\n        /* \"#utility.yul\":3892:3963   */\n      tag_172\n      jump\t// in\n    tag_230:\n        /* \"#utility.yul\":3748:3970   */\n      swap3\n      swap2\n      pop\n      pop\n      jump\t// out\n        /* \"#utility.yul\":3976:4066   */\n    tag_173:\n        /* \"#utility.yul\":4010:4017   */\n      0x00\n        /* \"#utility.yul\":4053:4058   */\n      dup2\n        /* \"#utility.yul\":4046:4059   */\n      iszero\n        /* \"#utility.yul\":4039:4060   */\n      iszero\n        /* \"#utility.yul\":4028:4060   */\n      swap1\n      pop\n        /* \"#utility.yul\":3976:4066   */\n      swap2\n      swap1\n      pop\n      jump\t// out\n        /* \"#utility.yul\":4072:4181   */\n    tag_174:\n        /* \"#utility.yul\":4153:4174   */\n      tag_233\n        /* \"#utility.yul\":4168:4173   */\n      dup2\n        /* \"#utility.yul\":4153:4174   */\n      tag_173\n      jump\t// in\n    tag_233:\n        /* \"#utility.yul\":4148:4151   */\n      dup3\n        /* \"#utility.yul\":4141:4175   */\n      mstore\n        /* \"#utility.yul\":4072:4181   */\n      pop\n      pop\n      jump\t// out\n        /* \"#utility.yul\":4187:4617   */\n    tag_43:\n        /* \"#utility.yul\":4330:4334   */\n      0x00\n        /* \"#utility.yul\":4368:4370   */\n      0x60\n        /* \"#utility.yul\":4357:4366   */\n      dup3\n        /* \"#utility.yul\":4353:4371   */\n      add\n        /* \"#utility.yul\":4345:4371   */\n      swap1\n      pop\n        /* \"#utility.yul\":4381:4452   */\n      tag_235\n        /* \"#utility.yul\":4449:4450   */\n      0x00\n        /* \"#utility.yul\":4438:4447   */\n      dup4\n        /* \"#utility.yul\":4434:4451   */\n      add\n        /* \"#utility.yul\":4425:4431   */\n      dup7\n        /* \"#utility.yul\":4381:4452   */\n      tag_157\n      jump\t// in\n    tag_235:\n        /* \"#utility.yul\":4462:4528   */\n      tag_236\n        /* \"#utility.yul\":4524:4526   */\n      0x20\n        /* \"#utility.yul\":4513:4522   */\n      dup4\n        /* \"#utility.yul\":4509:4527   */\n      add\n        /* \"#utility.yul\":4500:4506   */\n      dup6\n        /* \"#utility.yul\":4462:4528   */\n      tag_174\n      jump\t// in\n    tag_236:\n        /* \"#utility.yul\":4538:4610   */\n      tag_237\n        /* \"#utility.yul\":4606:4608   */\n      0x40\n        /* \"#utility.yul\":4595:4604   */\n      dup4\n        /* \"#utility.yul\":4591:4609   */\n      add\n        /* \"#utility.yul\":4582:4588   */\n      dup5\n        /* \"#utility.yul\":4538:4610   */\n      tag_157\n      jump\t// in\n    tag_237:\n        /* \"#utility.yul\":4187:4617   */\n      swap5\n      swap4\n      pop\n      pop\n      pop\n      pop\n      jump\t// out\n        /* \"#utility.yul\":4623:4745   */\n    tag_175:\n        /* \"#utility.yul\":4696:4720   */\n      tag_239\n        /* \"#utility.yul\":4714:4719   */\n      dup2\n        /* \"#utility.yul\":4696:4720   */\n      tag_156\n      jump\t// in\n    tag_239:\n        /* \"#utility.yul\":4689:4694   */\n      dup2\n        /* \"#utility.yul\":4686:4721   */\n      eq\n        /* \"#utility.yul\":4676:4739   */\n      tag_240\n      jumpi\n        /* \"#utility.yul\":4735:4736   */\n      0x00\n        /* \"#utility.yul\":4732:4733   */\n      dup1\n        /* \"#utility.yul\":4725:4737   */\n      revert\n        /* \"#utility.yul\":4676:4739   */\n    tag_240:\n        /* \"#utility.yul\":4623:4745   */\n      pop\n      jump\t// out\n        /* \"#utility.yul\":4751:4890   */\n    tag_176:\n        /* \"#utility.yul\":4797:4802   */\n      0x00\n        /* \"#utility.yul\":4835:4841   */\n      dup2\n        /* \"#utility.yul\":4822:4842   */\n      calldataload\n        /* \"#utility.yul\":4813:4842   */\n      swap1\n      pop\n        /* \"#utility.yul\":4851:4884   */\n      tag_242\n        /* \"#utility.yul\":4878:4883   */\n      dup2\n        /* \"#utility.yul\":4851:4884   */\n      tag_175\n      jump\t// in\n    tag_242:\n        /* \"#utility.yul\":4751:4890   */\n      swap3\n      swap2\n      pop\n      pop\n      jump\t// out\n        /* \"#utility.yul\":4896:5225   */\n    tag_51:\n        /* \"#utility.yul\":4955:4961   */\n      0x00\n        /* \"#utility.yul\":5004:5006   */\n      0x20\n        /* \"#utility.yul\":4992:5001   */\n      dup3\n        /* \"#utility.yul\":4983:4990   */\n      dup5\n        /* \"#utility.yul\":4979:5002   */\n      sub\n        /* \"#utility.yul\":4975:5007   */\n      slt\n        /* \"#utility.yul\":4972:5091   */\n      iszero\n      tag_244\n      jumpi\n        /* \"#utility.yul\":5010:5089   */\n      tag_245\n      tag_168\n      jump\t// in\n    tag_245:\n        /* \"#utility.yul\":4972:5091   */\n    tag_244:\n        /* \"#utility.yul\":5130:5131   */\n      0x00\n        /* \"#utility.yul\":5155:5208   */\n      tag_246\n        /* \"#utility.yul\":5200:5207   */\n      dup5\n        /* \"#utility.yul\":5191:5197   */\n      dup3\n        /* \"#utility.yul\":5180:5189   */\n      dup6\n        /* \"#utility.yul\":5176:5198   */\n      add\n        /* \"#utility.yul\":5155:5208   */\n      tag_176\n      jump\t// in\n    tag_246:\n        /* \"#utility.yul\":5145:5208   */\n      swap2\n      pop\n        /* \"#utility.yul\":5101:5218   */\n      pop\n        /* \"#utility.yul\":4896:5225   */\n      swap3\n      swap2\n      pop\n      pop\n      jump\t// out\n        /* \"#utility.yul\":5231:5400   */\n    tag_177:\n        /* \"#utility.yul\":5315:5326   */\n      0x00\n        /* \"#utility.yul\":5349:5355   */\n      dup3\n        /* \"#utility.yul\":5344:5347   */\n      dup3\n        /* \"#utility.yul\":5337:5356   */\n      mstore\n        /* \"#utility.yul\":5389:5393   */\n      0x20\n        /* \"#utility.yul\":5384:5387   */\n      dup3\n        /* \"#utility.yul\":5380:5394   */\n      add\n        /* \"#utility.yul\":5365:5394   */\n      swap1\n      pop\n        /* \"#utility.yul\":5231:5400   */\n      swap3\n      swap2\n      pop\n      pop\n      jump\t// out\n        /* \"#utility.yul\":5406:5572   */\n    tag_178:\n        /* \"#utility.yul\":5546:5564   */\n      0x416c726561647920696e20717565756500000000000000000000000000000000\n        /* \"#utility.yul\":5542:5543   */\n      0x00\n        /* \"#utility.yul\":5534:5540   */\n      dup3\n        /* \"#utility.yul\":5530:5544   */\n      add\n        /* \"#utility.yul\":5523:5565   */\n      mstore\n        /* \"#utility.yul\":5406:5572   */\n      pop\n      jump\t// out\n        /* \"#utility.yul\":5578:5944   */\n    tag_179:\n        /* \"#utility.yul\":5720:5723   */\n      0x00\n        /* \"#utility.yul\":5741:5808   */\n      tag_250\n        /* \"#utility.yul\":5805:5807   */\n      0x10\n        /* \"#utility.yul\":5800:5803   */\n      dup4\n        /* \"#utility.yul\":5741:5808   */\n      tag_177\n      jump\t// in\n    tag_250:\n        /* \"#utility.yul\":5734:5808   */\n      swap2\n      pop\n        /* \"#utility.yul\":5817:5910   */\n      tag_251\n        /* \"#utility.yul\":5906:5909   */\n      dup3\n        /* \"#utility.yul\":5817:5910   */\n      tag_178\n      jump\t// in\n    tag_251:\n        /* \"#utility.yul\":5935:5937   */\n      0x20\n        /* \"#utility.yul\":5930:5933   */\n      dup3\n        /* \"#utility.yul\":5926:5938   */\n      add\n        /* \"#utility.yul\":5919:5938   */\n      swap1\n      pop\n        /* \"#utility.yul\":5578:5944   */\n      swap2\n      swap1\n      pop\n      jump\t// out\n        /* \"#utility.yul\":5950:6369   */\n    tag_60:\n        /* \"#utility.yul\":6116:6120   */\n      0x00\n        /* \"#utility.yul\":6154:6156   */\n      0x20\n        /* \"#utility.yul\":6143:6152   */\n      dup3\n        /* \"#utility.yul\":6139:6157   */\n      add\n        /* \"#utility.yul\":6131:6157   */\n      swap1\n      pop\n        /* \"#utility.yul\":6203:6212   */\n      dup2\n        /* \"#utility.yul\":6197:6201   */\n      dup2\n        /* \"#utility.yul\":6193:6213   */\n      sub\n        /* \"#utility.yul\":6189:6190   */\n      0x00\n        /* \"#utility.yul\":6178:6187   */\n      dup4\n        /* \"#utility.yul\":6174:6191   */\n      add\n        /* \"#utility.yul\":6167:6214   */\n      mstore\n        /* \"#utility.yul\":6231:6362   */\n      tag_253\n        /* \"#utility.yul\":6357:6361   */\n      dup2\n        /* \"#utility.yul\":6231:6362   */\n      tag_179\n      jump\t// in\n    tag_253:\n        /* \"#utility.yul\":6223:6362   */\n      swap1\n      pop\n        /* \"#utility.yul\":5950:6369   */\n      swap2\n      swap1\n      pop\n      jump\t// out\n        /* \"#utility.yul\":6375:6555   */\n    tag_180:\n        /* \"#utility.yul\":6423:6500   */\n      0x4e487b7100000000000000000000000000000000000000000000000000000000\n        /* \"#utility.yul\":6420:6421   */\n      0x00\n        /* \"#utility.yul\":6413:6501   */\n      mstore\n        /* \"#utility.yul\":6520:6524   */\n      0x11\n        /* \"#utility.yul\":6517:6518   */\n      0x04\n        /* \"#utility.yul\":6510:6525   */\n      mstore\n        /* \"#utility.yul\":6544:6548   */\n      0x24\n        /* \"#utility.yul\":6541:6542   */\n      0x00\n        /* \"#utility.yul\":6534:6549   */\n      revert\n        /* \"#utility.yul\":6561:6752   */\n    tag_62:\n        /* \"#utility.yul\":6601:6604   */\n      0x00\n        /* \"#utility.yul\":6620:6640   */\n      tag_256\n        /* \"#utility.yul\":6638:6639   */\n      dup3\n        /* \"#utility.yul\":6620:6640   */\n      tag_156\n      jump\t// in\n    tag_256:\n        /* \"#utility.yul\":6615:6640   */\n      swap2\n      pop\n        /* \"#utility.yul\":6654:6674   */\n      tag_257\n        /* \"#utility.yul\":6672:6673   */\n      dup4\n        /* \"#utility.yul\":6654:6674   */\n      tag_156\n      jump\t// in\n    tag_257:\n        /* \"#utility.yul\":6649:6674   */\n      swap3\n      pop\n        /* \"#utility.yul\":6697:6698   */\n      dup3\n        /* \"#utility.yul\":6694:6695   */\n      dup3\n        /* \"#utility.yul\":6690:6699   */\n      add\n        /* \"#utility.yul\":6683:6699   */\n      swap1\n      pop\n        /* \"#utility.yul\":6718:6721   */\n      dup1\n        /* \"#utility.yul\":6715:6716   */\n      dup3\n        /* \"#utility.yul\":6712:6722   */\n      gt\n        /* \"#utility.yul\":6709:6745   */\n      iszero\n      tag_258\n      jumpi\n        /* \"#utility.yul\":6725:6743   */\n      tag_259\n      tag_180\n      jump\t// in\n    tag_259:\n        /* \"#utility.yul\":6709:6745   */\n    tag_258:\n        /* \"#utility.yul\":6561:6752   */\n      swap3\n      swap2\n      pop\n      pop\n      jump\t// out\n        /* \"#utility.yul\":6758:6920   */\n    tag_181:\n        /* \"#utility.yul\":6898:6912   */\n      0x4e6f7420696e2071756575650000000000000000000000000000000000000000\n        /* \"#utility.yul\":6894:6895   */\n      0x00\n        /* \"#utility.yul\":6886:6892   */\n      dup3\n        /* \"#utility.yul\":6882:6896   */\n      add\n        /* \"#utility.yul\":6875:6913   */\n      mstore\n        /* \"#utility.yul\":6758:6920   */\n      pop\n      jump\t// out\n        /* \"#utility.yul\":6926:7292   */\n    tag_182:\n        /* \"#utility.yul\":7068:7071   */\n      0x00\n        /* \"#utility.yul\":7089:7156   */\n      tag_262\n        /* \"#utility.yul\":7153:7155   */\n      0x0c\n        /* \"#utility.yul\":7148:7151   */\n      dup4\n        /* \"#utility.yul\":7089:7156   */\n      tag_177\n      jump\t// in\n    tag_262:\n        /* \"#utility.yul\":7082:7156   */\n      swap2\n      pop\n        /* \"#utility.yul\":7165:7258   */\n      tag_263\n        /* \"#utility.yul\":7254:7257   */\n      dup3\n        /* \"#utility.yul\":7165:7258   */\n      tag_181\n      jump\t// in\n    tag_263:\n        /* \"#utility.yul\":7283:7285   */\n      0x20\n        /* \"#utility.yul\":7278:7281   */\n      dup3\n        /* \"#utility.yul\":7274:7286   */\n      add\n        /* \"#utility.yul\":7267:7286   */\n      swap1\n      pop\n        /* \"#utility.yul\":6926:7292   */\n      swap2\n      swap1\n      pop\n      jump\t// out\n        /* \"#utility.yul\":7298:7717   */\n    tag_69:\n        /* \"#utility.yul\":7464:7468   */\n      0x00\n        /* \"#utility.yul\":7502:7504   */\n      0x20\n        /* \"#utility.yul\":7491:7500   */\n      dup3\n        /* \"#utility.yul\":7487:7505   */\n      add\n        /* \"#utility.yul\":7479:7505   */\n      swap1\n      pop\n        /* \"#utility.yul\":7551:7560   */\n      dup2\n        /* \"#utility.yul\":7545:7549   */\n      dup2\n        /* \"#utility.yul\":7541:7561   */\n      sub\n        /* \"#utility.yul\":7537:7538   */\n      0x00\n        /* \"#utility.yul\":7526:7535   */\n      dup4\n        /* \"#utility.yul\":7522:7539   */\n      add\n        /* \"#utility.yul\":7515:7562   */\n      mstore\n        /* \"#utility.yul\":7579:7710   */\n      tag_265\n        /* \"#utility.yul\":7705:7709   */\n      dup2\n        /* \"#utility.yul\":7579:7710   */\n      tag_182\n      jump\t// in\n    tag_265:\n        /* \"#utility.yul\":7571:7710   */\n      swap1\n      pop\n        /* \"#utility.yul\":7298:7717   */\n      swap2\n      swap1\n      pop\n      jump\t// out\n        /* \"#utility.yul\":7723:7886   */\n    tag_183:\n        /* \"#utility.yul\":7863:7878   */\n      0x416c726561647920612056495000000000000000000000000000000000000000\n        /* \"#utility.yul\":7859:7860   */\n      0x00\n        /* \"#utility.yul\":7851:7857   */\n      dup3\n        /* \"#utility.yul\":7847:7861   */\n      add\n        /* \"#utility.yul\":7840:7879   */\n      mstore\n        /* \"#utility.yul\":7723:7886   */\n      pop\n      jump\t// out\n        /* \"#utility.yul\":7892:8258   */\n    tag_184:\n        /* \"#utility.yul\":8034:8037   */\n      0x00\n        /* \"#utility.yul\":8055:8122   */\n      tag_268\n        /* \"#utility.yul\":8119:8121   */\n      0x0d\n        /* \"#utility.yul\":8114:8117   */\n      dup4\n        /* \"#utility.yul\":8055:8122   */\n      tag_177\n      jump\t// in\n    tag_268:\n        /* \"#utility.yul\":8048:8122   */\n      swap2\n      pop\n        /* \"#utility.yul\":8131:8224   */\n      tag_269\n        /* \"#utility.yul\":8220:8223   */\n      dup3\n        /* \"#utility.yul\":8131:8224   */\n      tag_183\n      jump\t// in\n    tag_269:\n        /* \"#utility.yul\":8249:8251   */\n      0x20\n        /* \"#utility.yul\":8244:8247   */\n      dup3\n        /* \"#utility.yul\":8240:8252   */\n      add\n        /* \"#utility.yul\":8233:8252   */\n      swap1\n      pop\n        /* \"#utility.yul\":7892:8258   */\n      swap2\n      swap1\n      pop\n      jump\t// out\n        /* \"#utility.yul\":8264:8683   */\n    tag_72:\n        /* \"#utility.yul\":8430:8434   */\n      0x00\n        /* \"#utility.yul\":8468:8470   */\n      0x20\n        /* \"#utility.yul\":8457:8466   */\n      dup3\n        /* \"#utility.yul\":8453:8471   */\n      add\n        /* \"#utility.yul\":8445:8471   */\n      swap1\n      pop\n        /* \"#utility.yul\":8517:8526   */\n      dup2\n        /* \"#utility.yul\":8511:8515   */\n      dup2\n        /* \"#utility.yul\":8507:8527   */\n      sub\n        /* \"#utility.yul\":8503:8504   */\n      0x00\n        /* \"#utility.yul\":8492:8501   */\n      dup4\n        /* \"#utility.yul\":8488:8505   */\n      add\n        /* \"#utility.yul\":8481:8528   */\n      mstore\n        /* \"#utility.yul\":8545:8676   */\n      tag_271\n        /* \"#utility.yul\":8671:8675   */\n      dup2\n        /* \"#utility.yul\":8545:8676   */\n      tag_184\n      jump\t// in\n    tag_271:\n        /* \"#utility.yul\":8537:8676   */\n      swap1\n      pop\n        /* \"#utility.yul\":8264:8683   */\n      swap2\n      swap1\n      pop\n      jump\t// out\n        /* \"#utility.yul\":8689:8857   */\n    tag_185:\n        /* \"#utility.yul\":8829:8849   */\n      0x496e636f72726563742056495020636f73740000000000000000000000000000\n        /* \"#utility.yul\":8825:8826   */\n      0x00\n        /* \"#utility.yul\":8817:8823   */\n      dup3\n        /* \"#utility.yul\":8813:8827   */\n      add\n        /* \"#utility.yul\":8806:8850   */\n      mstore\n        /* \"#utility.yul\":8689:8857   */\n      pop\n      jump\t// out\n        /* \"#utility.yul\":8863:9229   */\n    tag_186:\n        /* \"#utility.yul\":9005:9008   */\n      0x00\n        /* \"#utility.yul\":9026:9093   */\n      tag_274\n        /* \"#utility.yul\":9090:9092   */\n      0x12\n        /* \"#utility.yul\":9085:9088   */\n      dup4\n        /* \"#utility.yul\":9026:9093   */\n      tag_177\n      jump\t// in\n    tag_274:\n        /* \"#utility.yul\":9019:9093   */\n      swap2\n      pop\n        /* \"#utility.yul\":9102:9195   */\n      tag_275\n        /* \"#utility.yul\":9191:9194   */\n      dup3\n        /* \"#utility.yul\":9102:9195   */\n      tag_185\n      jump\t// in\n    tag_275:\n        /* \"#utility.yul\":9220:9222   */\n      0x20\n        /* \"#utility.yul\":9215:9218   */\n      dup3\n        /* \"#utility.yul\":9211:9223   */\n      add\n        /* \"#utility.yul\":9204:9223   */\n      swap1\n      pop\n        /* \"#utility.yul\":8863:9229   */\n      swap2\n      swap1\n      pop\n      jump\t// out\n        /* \"#utility.yul\":9235:9654   */\n    tag_75:\n        /* \"#utility.yul\":9401:9405   */\n      0x00\n        /* \"#utility.yul\":9439:9441   */\n      0x20\n        /* \"#utility.yul\":9428:9437   */\n      dup3\n        /* \"#utility.yul\":9424:9442   */\n      add\n        /* \"#utility.yul\":9416:9442   */\n      swap1\n      pop\n        /* \"#utility.yul\":9488:9497   */\n      dup2\n        /* \"#utility.yul\":9482:9486   */\n      dup2\n        /* \"#utility.yul\":9478:9498   */\n      sub\n        /* \"#utility.yul\":9474:9475   */\n      0x00\n        /* \"#utility.yul\":9463:9472   */\n      dup4\n        /* \"#utility.yul\":9459:9476   */\n      add\n        /* \"#utility.yul\":9452:9499   */\n      mstore\n        /* \"#utility.yul\":9516:9647   */\n      tag_277\n        /* \"#utility.yul\":9642:9646   */\n      dup2\n        /* \"#utility.yul\":9516:9647   */\n      tag_186\n      jump\t// in\n    tag_277:\n        /* \"#utility.yul\":9508:9647   */\n      swap1\n      pop\n        /* \"#utility.yul\":9235:9654   */\n      swap2\n      swap1\n      pop\n      jump\t// out\n        /* \"#utility.yul\":9660:9840   */\n    tag_80:\n        /* \"#utility.yul\":9708:9785   */\n      0x4e487b7100000000000000000000000000000000000000000000000000000000\n        /* \"#utility.yul\":9705:9706   */\n      0x00\n        /* \"#utility.yul\":9698:9786   */\n      mstore\n        /* \"#utility.yul\":9805:9809   */\n      0x41\n        /* \"#utility.yul\":9802:9803   */\n      0x04\n        /* \"#utility.yul\":9795:9810   */\n      mstore\n        /* \"#utility.yul\":9829:9833   */\n      0x24\n        /* \"#utility.yul\":9826:9827   */\n      0x00\n        /* \"#utility.yul\":9819:9834   */\n      revert\n        /* \"#utility.yul\":9846:10026   */\n    tag_87:\n        /* \"#utility.yul\":9894:9971   */\n      0x4e487b7100000000000000000000000000000000000000000000000000000000\n        /* \"#utility.yul\":9891:9892   */\n      0x00\n        /* \"#utility.yul\":9884:9972   */\n      mstore\n        /* \"#utility.yul\":9991:9995   */\n      0x32\n        /* \"#utility.yul\":9988:9989   */\n      0x04\n        /* \"#utility.yul\":9981:9996   */\n      mstore\n        /* \"#utility.yul\":10015:10019   */\n      0x24\n        /* \"#utility.yul\":10012:10013   */\n      0x00\n        /* \"#utility.yul\":10005:10020   */\n      revert\n        /* \"#utility.yul\":10032:10265   */\n    tag_96:\n        /* \"#utility.yul\":10071:10074   */\n      0x00\n        /* \"#utility.yul\":10094:10118   */\n      tag_281\n        /* \"#utility.yul\":10112:10117   */\n      dup3\n        /* \"#utility.yul\":10094:10118   */\n      tag_156\n      jump\t// in\n    tag_281:\n        /* \"#utility.yul\":10085:10118   */\n      swap2\n      pop\n        /* \"#utility.yul\":10140:10206   */\n      0xffffffffffffffffffffffffffffffffffffffffffffffffffffffffffffffff\n        /* \"#utility.yul\":10133:10138   */\n      dup3\n        /* \"#utility.yul\":10130:10207   */\n      sub\n        /* \"#utility.yul\":10127:10230   */\n      tag_282\n      jumpi\n        /* \"#utility.yul\":10210:10228   */\n      tag_283\n      tag_180\n      jump\t// in\n    tag_283:\n        /* \"#utility.yul\":10127:10230   */\n    tag_282:\n        /* \"#utility.yul\":10257:10258   */\n      0x01\n        /* \"#utility.yul\":10250:10255   */\n      dup3\n        /* \"#utility.yul\":10246:10259   */\n      add\n        /* \"#utility.yul\":10239:10259   */\n      swap1\n      pop\n        /* \"#utility.yul\":10032:10265   */\n      swap2\n      swap1\n      pop\n      jump\t// out\n        /* \"#utility.yul\":10271:10465   */\n    tag_101:\n        /* \"#utility.yul\":10311:10315   */\n      0x00\n        /* \"#utility.yul\":10331:10351   */\n      tag_285\n        /* \"#utility.yul\":10349:10350   */\n      dup3\n        /* \"#utility.yul\":10331:10351   */\n      tag_156\n      jump\t// in\n    tag_285:\n        /* \"#utility.yul\":10326:10351   */\n      swap2\n      pop\n        /* \"#utility.yul\":10365:10385   */\n      tag_286\n        /* \"#utility.yul\":10383:10384   */\n      dup4\n        /* \"#utility.yul\":10365:10385   */\n      tag_156\n      jump\t// in\n    tag_286:\n        /* \"#utility.yul\":10360:10385   */\n      swap3\n      pop\n        /* \"#utility.yul\":10409:10410   */\n      dup3\n        /* \"#utility.yul\":10406:10407   */\n      dup3\n        /* \"#utility.yul\":10402:10411   */\n      sub\n        /* \"#utility.yul\":10394:10411   */\n      swap1\n      pop\n        /* \"#utility.yul\":10433:10434   */\n      dup2\n        /* \"#utility.yul\":10427:10431   */\n      dup2\n        /* \"#utility.yul\":10424:10435   */\n      gt\n        /* \"#utility.yul\":10421:10458   */\n      iszero\n      tag_287\n      jumpi\n        /* \"#utility.yul\":10438:10456   */\n      tag_288\n      tag_180\n      jump\t// in\n    tag_288:\n        /* \"#utility.yul\":10421:10458   */\n    tag_287:\n        /* \"#utility.yul\":10271:10465   */\n      swap3\n      swap2\n      pop\n      pop\n      jump\t// out\n\n    auxdata: 0xa26469706673582212204cc015a956e5247d5d828d6a335acff4e84315e59348d1a830004c33e2a5df5b64736f6c634300081a0033\n}\n",
				"bytecode": {
					"linkReferences": {},
					"object": "6080604052655af3107a4000600355348015610019575f80fd5b506040516115d83803806115d8833981810160405281019061003b919061014d565b5f73ffffffffffffffffffffffffffffffffffffffff168173ffffffffffffffffffffffffffffffffffffffff16036100a9576040517f08c379a00000000000000000000000000000000000000000000000000000000081526004016100a0906101d2565b60405180910390fd5b8060025f6101000a81548173ffffffffffffffffffffffffffffffffffffffff021916908373ffffffffffffffffffffffffffffffffffffffff160217905550506101f0565b5f80fd5b5f73ffffffffffffffffffffffffffffffffffffffff82169050919050565b5f61011c826100f3565b9050919050565b61012c81610112565b8114610136575f80fd5b50565b5f8151905061014781610123565b92915050565b5f60208284031215610162576101616100ef565b5b5f61016f84828501610139565b91505092915050565b5f82825260208201905092915050565b7f496e76616c6964206f776e6572206164647265737300000000000000000000005f82015250565b5f6101bc601583610178565b91506101c782610188565b602082019050919050565b5f6020820190508181035f8301526101e9816101b0565b9050919050565b6113db806101fd5f395ff3fe608060405260043610610085575f3560e01c80638da5cb5b116100585780638da5cb5b1461012f5780639fff00af14610159578063a87430ba14610163578063ce348c6f146101a1578063ddf0b009146101cb57610085565b80635531940e1461008957806355ec29cb146100b35780635ecac9d4146100dd57806371fb1a79146100f3575b5f80fd5b348015610094575f80fd5b5061009d610207565b6040516100aa9190610e7c565b60405180910390f35b3480156100be575f80fd5b506100c761020d565b6040516100d49190610f7c565b60405180910390f35b3480156100e8575f80fd5b506100f1610298565b005b3480156100fe575f80fd5b5061011960048036038101906101149190610fca565b61046a565b6040516101269190610e7c565b60405180910390f35b34801561013a575f80fd5b506101436104b1565b6040516101509190611004565b60405180910390f35b6101616104d6565b005b34801561016e575f80fd5b5061018960048036038101906101849190610fca565b610d4a565b60405161019893929190611037565b60405180910390f35b3480156101ac575f80fd5b506101b5610d7b565b6040516101c29190610e7c565b60405180910390f35b3480156101d6575f80fd5b506101f160048036038101906101ec9190611096565b610d87565b6040516101fe9190611004565b60405180910390f35b60035481565b6060600180548060200260200160405190810160405280929190818152602001828054801561028e57602002820191905f5260205f20905b815f9054906101000a900473ffffffffffffffffffffffffffffffffffffffff1673ffffffffffffffffffffffffffffffffffffffff1681526020019060010190808311610245575b5050505050905090565b5f805f3373ffffffffffffffffffffffffffffffffffffffff1673ffffffffffffffffffffffffffffffffffffffff1681526020019081526020015f205f015414610318576040517f08c379a000000000000000000000000000000000000000000000000000000000815260040161030f9061111b565b60405180910390fd5b5f6001808054905061032a9190611166565b905060405180606001604052808281526020015f151581526020015f8152505f803373ffffffffffffffffffffffffffffffffffffffff1673ffffffffffffffffffffffffffffffffffffffff1681526020019081526020015f205f820151815f01556020820151816001015f6101000a81548160ff02191690831515021790555060408201518160020155905050600133908060018154018082558091505060019003905f5260205f20015f9091909190916101000a81548173ffffffffffffffffffffffffffffffffffffffff021916908373ffffffffffffffffffffffffffffffffffffffff1602179055503373ffffffffffffffffffffffffffffffffffffffff167f2a0cf68fb8eff8bff9b991c78bb921b9214ce5cc99496b8ac04885ff0e37ae238260405161045f9190610e7c565b60405180910390a250565b5f805f8373ffffffffffffffffffffffffffffffffffffffff1673ffffffffffffffffffffffffffffffffffffffff1681526020019081526020015f205f01549050919050565b60025f9054906101000a900473ffffffffffffffffffffffffffffffffffffffff1681565b5f805f3373ffffffffffffffffffffffffffffffffffffffff1673ffffffffffffffffffffffffffffffffffffffff1681526020019081526020015f205f015403610556576040517f08c379a000000000000000000000000000000000000000000000000000000000815260040161054d906111e3565b60405180910390fd5b5f803373ffffffffffffffffffffffffffffffffffffffff1673ffffffffffffffffffffffffffffffffffffffff1681526020019081526020015f206001015f9054906101000a900460ff16156105e2576040517f08c379a00000000000000000000000000000000000000000000000000000000081526004016105d99061124b565b60405180910390fd5b6003543414610626576040517f08c379a000000000000000000000000000000000000000000000000000000000815260040161061d906112b3565b60405180910390fd5b60025f9054906101000a900473ffffffffffffffffffffffffffffffffffffffff1673ffffffffffffffffffffffffffffffffffffffff166108fc3490811502906040515f60405180830381858888f1935050505015801561068a573d5f803e3d5ffd5b5060015f803373ffffffffffffffffffffffffffffffffffffffff1673ffffffffffffffffffffffffffffffffffffffff1681526020019081526020015f206001015f6101000a81548160ff0219169083151502179055505f429050805f803373ffffffffffffffffffffffffffffffffffffffff1673ffffffffffffffffffffffffffffffffffffffff1681526020019081526020015f20600201819055505f60018054905067ffffffffffffffff81111561074a576107496112d1565b5b6040519080825280602002602001820160405280156107785781602001602082028036833780820191505090505b5090505f805b6001805490508110156108bc575f80600183815481106107a1576107a06112fe565b5b905f5260205f20015f9054906101000a900473ffffffffffffffffffffffffffffffffffffffff1673ffffffffffffffffffffffffffffffffffffffff1673ffffffffffffffffffffffffffffffffffffffff1681526020019081526020015f206001015f9054906101000a900460ff16156108af576001818154811061082b5761082a6112fe565b5b905f5260205f20015f9054906101000a900473ffffffffffffffffffffffffffffffffffffffff16838381518110610866576108656112fe565b5b602002602001019073ffffffffffffffffffffffffffffffffffffffff16908173ffffffffffffffffffffffffffffffffffffffff168152505081806108ab9061132b565b9250505b808060010191505061077e565b505f5b6001826108cc9190611372565b811015610aba575f5b600182846108e39190611372565b6108ed9190611372565b811015610aac575f80856001846109049190611166565b81518110610915576109146112fe565b5b602002602001015173ffffffffffffffffffffffffffffffffffffffff1673ffffffffffffffffffffffffffffffffffffffff1681526020019081526020015f20600201545f8086848151811061096f5761096e6112fe565b5b602002602001015173ffffffffffffffffffffffffffffffffffffffff1673ffffffffffffffffffffffffffffffffffffffff1681526020019081526020015f20600201541115610a9f57836001826109c89190611166565b815181106109d9576109d86112fe565b5b60200260200101518482815181106109f4576109f36112fe565b5b6020026020010151858381518110610a0f57610a0e6112fe565b5b6020026020010186600185610a249190611166565b81518110610a3557610a346112fe565b5b602002602001018273ffffffffffffffffffffffffffffffffffffffff1673ffffffffffffffffffffffffffffffffffffffff168152508273ffffffffffffffffffffffffffffffffffffffff1673ffffffffffffffffffffffffffffffffffffffff1681525050505b80806001019150506108d5565b5080806001019150506108bf565b505f5b600180549050811015610bfa575f8060018381548110610ae057610adf6112fe565b5b905f5260205f20015f9054906101000a900473ffffffffffffffffffffffffffffffffffffffff1673ffffffffffffffffffffffffffffffffffffffff1673ffffffffffffffffffffffffffffffffffffffff1681526020019081526020015f206001015f9054906101000a900460ff16610bed5760018181548110610b6957610b686112fe565b5b905f5260205f20015f9054906101000a900473ffffffffffffffffffffffffffffffffffffffff16838381518110610ba457610ba36112fe565b5b602002602001019073ffffffffffffffffffffffffffffffffffffffff16908173ffffffffffffffffffffffffffffffffffffffff16815250508180610be99061132b565b9250505b8080600101915050610abd565b508160019080519060200190610c11929190610dc2565b505f5b600180549050811015610cb857600181610c2e9190611166565b5f8060018481548110610c4457610c436112fe565b5b905f5260205f20015f9054906101000a900473ffffffffffffffffffffffffffffffffffffffff1673ffffffffffffffffffffffffffffffffffffffff1673ffffffffffffffffffffffffffffffffffffffff1681526020019081526020015f205f01819055508080600101915050610c14565b503373ffffffffffffffffffffffffffffffffffffffff167f04c5b3c2563dd2da1dae5ffa19c4657e3e03098e8dd6b1ea852c6dcb318afed85f803373ffffffffffffffffffffffffffffffffffffffff1673ffffffffffffffffffffffffffffffffffffffff1681526020019081526020015f205f0154604051610d3d9190610e7c565b60405180910390a2505050565b5f602052805f5260405f205f91509050805f015490806001015f9054906101000a900460ff16908060020154905083565b5f600180549050905090565b60018181548110610d96575f80fd5b905f5260205f20015f915054906101000a900473ffffffffffffffffffffffffffffffffffffffff1681565b828054828255905f5260205f20908101928215610e38579160200282015b82811115610e37578251825f6101000a81548173ffffffffffffffffffffffffffffffffffffffff021916908373ffffffffffffffffffffffffffffffffffffffff16021790555091602001919060010190610de0565b5b509050610e459190610e49565b5090565b5b80821115610e60575f815f905550600101610e4a565b5090565b5f819050919050565b610e7681610e64565b82525050565b5f602082019050610e8f5f830184610e6d565b92915050565b5f81519050919050565b5f82825260208201905092915050565b5f819050602082019050919050565b5f73ffffffffffffffffffffffffffffffffffffffff82169050919050565b5f610ee782610ebe565b9050919050565b610ef781610edd565b82525050565b5f610f088383610eee565b60208301905092915050565b5f602082019050919050565b5f610f2a82610e95565b610f348185610e9f565b9350610f3f83610eaf565b805f5b83811015610f6f578151610f568882610efd565b9750610f6183610f14565b925050600181019050610f42565b5085935050505092915050565b5f6020820190508181035f830152610f948184610f20565b905092915050565b5f80fd5b610fa981610edd565b8114610fb3575f80fd5b50565b5f81359050610fc481610fa0565b92915050565b5f60208284031215610fdf57610fde610f9c565b5b5f610fec84828501610fb6565b91505092915050565b610ffe81610edd565b82525050565b5f6020820190506110175f830184610ff5565b92915050565b5f8115159050919050565b6110318161101d565b82525050565b5f60608201905061104a5f830186610e6d565b6110576020830185611028565b6110646040830184610e6d565b949350505050565b61107581610e64565b811461107f575f80fd5b50565b5f813590506110908161106c565b92915050565b5f602082840312156110ab576110aa610f9c565b5b5f6110b884828501611082565b91505092915050565b5f82825260208201905092915050565b7f416c726561647920696e207175657565000000000000000000000000000000005f82015250565b5f6111056010836110c1565b9150611110826110d1565b602082019050919050565b5f6020820190508181035f830152611132816110f9565b9050919050565b7f4e487b71000000000000000000000000000000000000000000000000000000005f52601160045260245ffd5b5f61117082610e64565b915061117b83610e64565b925082820190508082111561119357611192611139565b5b92915050565b7f4e6f7420696e20717565756500000000000000000000000000000000000000005f82015250565b5f6111cd600c836110c1565b91506111d882611199565b602082019050919050565b5f6020820190508181035f8301526111fa816111c1565b9050919050565b7f416c7265616479206120564950000000000000000000000000000000000000005f82015250565b5f611235600d836110c1565b915061124082611201565b602082019050919050565b5f6020820190508181035f83015261126281611229565b9050919050565b7f496e636f72726563742056495020636f737400000000000000000000000000005f82015250565b5f61129d6012836110c1565b91506112a882611269565b602082019050919050565b5f6020820190508181035f8301526112ca81611291565b9050919050565b7f4e487b71000000000000000000000000000000000000000000000000000000005f52604160045260245ffd5b7f4e487b71000000000000000000000000000000000000000000000000000000005f52603260045260245ffd5b5f61133582610e64565b91507fffffffffffffffffffffffffffffffffffffffffffffffffffffffffffffffff820361136757611366611139565b5b600182019050919050565b5f61137c82610e64565b915061138783610e64565b925082820390508181111561139f5761139e611139565b5b9291505056fea26469706673582212204cc015a956e5247d5d828d6a335acff4e84315e59348d1a830004c33e2a5df5b64736f6c634300081a0033",
					"opcodes": "PUSH1 0x80 PUSH1 0x40 MSTORE PUSH6 0x5AF3107A4000 PUSH1 0x3 SSTORE CALLVALUE DUP1 ISZERO PUSH2 0x19 JUMPI PUSH0 DUP1 REVERT JUMPDEST POP PUSH1 0x40 MLOAD PUSH2 0x15D8 CODESIZE SUB DUP1 PUSH2 0x15D8 DUP4 CODECOPY DUP2 DUP2 ADD PUSH1 0x40 MSTORE DUP2 ADD SWAP1 PUSH2 0x3B SWAP2 SWAP1 PUSH2 0x14D JUMP JUMPDEST PUSH0 PUSH20 0xFFFFFFFFFFFFFFFFFFFFFFFFFFFFFFFFFFFFFFFF AND DUP2 PUSH20 0xFFFFFFFFFFFFFFFFFFFFFFFFFFFFFFFFFFFFFFFF AND SUB PUSH2 0xA9 JUMPI PUSH1 0x40 MLOAD PUSH32 0x8C379A000000000000000000000000000000000000000000000000000000000 DUP2 MSTORE PUSH1 0x4 ADD PUSH2 0xA0 SWAP1 PUSH2 0x1D2 JUMP JUMPDEST PUSH1 0x40 MLOAD DUP1 SWAP2 SUB SWAP1 REVERT JUMPDEST DUP1 PUSH1 0x2 PUSH0 PUSH2 0x100 EXP DUP2 SLOAD DUP2 PUSH20 0xFFFFFFFFFFFFFFFFFFFFFFFFFFFFFFFFFFFFFFFF MUL NOT AND SWAP1 DUP4 PUSH20 0xFFFFFFFFFFFFFFFFFFFFFFFFFFFFFFFFFFFFFFFF AND MUL OR SWAP1 SSTORE POP POP PUSH2 0x1F0 JUMP JUMPDEST PUSH0 DUP1 REVERT JUMPDEST PUSH0 PUSH20 0xFFFFFFFFFFFFFFFFFFFFFFFFFFFFFFFFFFFFFFFF DUP3 AND SWAP1 POP SWAP2 SWAP1 POP JUMP JUMPDEST PUSH0 PUSH2 0x11C DUP3 PUSH2 0xF3 JUMP JUMPDEST SWAP1 POP SWAP2 SWAP1 POP JUMP JUMPDEST PUSH2 0x12C DUP2 PUSH2 0x112 JUMP JUMPDEST DUP2 EQ PUSH2 0x136 JUMPI PUSH0 DUP1 REVERT JUMPDEST POP JUMP JUMPDEST PUSH0 DUP2 MLOAD SWAP1 POP PUSH2 0x147 DUP2 PUSH2 0x123 JUMP JUMPDEST SWAP3 SWAP2 POP POP JUMP JUMPDEST PUSH0 PUSH1 0x20 DUP3 DUP5 SUB SLT ISZERO PUSH2 0x162 JUMPI PUSH2 0x161 PUSH2 0xEF JUMP JUMPDEST JUMPDEST PUSH0 PUSH2 0x16F DUP5 DUP3 DUP6 ADD PUSH2 0x139 JUMP JUMPDEST SWAP2 POP POP SWAP3 SWAP2 POP POP JUMP JUMPDEST PUSH0 DUP3 DUP3 MSTORE PUSH1 0x20 DUP3 ADD SWAP1 POP SWAP3 SWAP2 POP POP JUMP JUMPDEST PUSH32 0x496E76616C6964206F776E657220616464726573730000000000000000000000 PUSH0 DUP3 ADD MSTORE POP JUMP JUMPDEST PUSH0 PUSH2 0x1BC PUSH1 0x15 DUP4 PUSH2 0x178 JUMP JUMPDEST SWAP2 POP PUSH2 0x1C7 DUP3 PUSH2 0x188 JUMP JUMPDEST PUSH1 0x20 DUP3 ADD SWAP1 POP SWAP2 SWAP1 POP JUMP JUMPDEST PUSH0 PUSH1 0x20 DUP3 ADD SWAP1 POP DUP2 DUP2 SUB PUSH0 DUP4 ADD MSTORE PUSH2 0x1E9 DUP2 PUSH2 0x1B0 JUMP JUMPDEST SWAP1 POP SWAP2 SWAP1 POP JUMP JUMPDEST PUSH2 0x13DB DUP1 PUSH2 0x1FD PUSH0 CODECOPY PUSH0 RETURN INVALID PUSH1 0x80 PUSH1 0x40 MSTORE PUSH1 0x4 CALLDATASIZE LT PUSH2 0x85 JUMPI PUSH0 CALLDATALOAD PUSH1 0xE0 SHR DUP1 PUSH4 0x8DA5CB5B GT PUSH2 0x58 JUMPI DUP1 PUSH4 0x8DA5CB5B EQ PUSH2 0x12F JUMPI DUP1 PUSH4 0x9FFF00AF EQ PUSH2 0x159 JUMPI DUP1 PUSH4 0xA87430BA EQ PUSH2 0x163 JUMPI DUP1 PUSH4 0xCE348C6F EQ PUSH2 0x1A1 JUMPI DUP1 PUSH4 0xDDF0B009 EQ PUSH2 0x1CB JUMPI PUSH2 0x85 JUMP JUMPDEST DUP1 PUSH4 0x5531940E EQ PUSH2 0x89 JUMPI DUP1 PUSH4 0x55EC29CB EQ PUSH2 0xB3 JUMPI DUP1 PUSH4 0x5ECAC9D4 EQ PUSH2 0xDD JUMPI DUP1 PUSH4 0x71FB1A79 EQ PUSH2 0xF3 JUMPI JUMPDEST PUSH0 DUP1 REVERT JUMPDEST CALLVALUE DUP1 ISZERO PUSH2 0x94 JUMPI PUSH0 DUP1 REVERT JUMPDEST POP PUSH2 0x9D PUSH2 0x207 JUMP JUMPDEST PUSH1 0x40 MLOAD PUSH2 0xAA SWAP2 SWAP1 PUSH2 0xE7C JUMP JUMPDEST PUSH1 0x40 MLOAD DUP1 SWAP2 SUB SWAP1 RETURN JUMPDEST CALLVALUE DUP1 ISZERO PUSH2 0xBE JUMPI PUSH0 DUP1 REVERT JUMPDEST POP PUSH2 0xC7 PUSH2 0x20D JUMP JUMPDEST PUSH1 0x40 MLOAD PUSH2 0xD4 SWAP2 SWAP1 PUSH2 0xF7C JUMP JUMPDEST PUSH1 0x40 MLOAD DUP1 SWAP2 SUB SWAP1 RETURN JUMPDEST CALLVALUE DUP1 ISZERO PUSH2 0xE8 JUMPI PUSH0 DUP1 REVERT JUMPDEST POP PUSH2 0xF1 PUSH2 0x298 JUMP JUMPDEST STOP JUMPDEST CALLVALUE DUP1 ISZERO PUSH2 0xFE JUMPI PUSH0 DUP1 REVERT JUMPDEST POP PUSH2 0x119 PUSH1 0x4 DUP1 CALLDATASIZE SUB DUP2 ADD SWAP1 PUSH2 0x114 SWAP2 SWAP1 PUSH2 0xFCA JUMP JUMPDEST PUSH2 0x46A JUMP JUMPDEST PUSH1 0x40 MLOAD PUSH2 0x126 SWAP2 SWAP1 PUSH2 0xE7C JUMP JUMPDEST PUSH1 0x40 MLOAD DUP1 SWAP2 SUB SWAP1 RETURN JUMPDEST CALLVALUE DUP1 ISZERO PUSH2 0x13A JUMPI PUSH0 DUP1 REVERT JUMPDEST POP PUSH2 0x143 PUSH2 0x4B1 JUMP JUMPDEST PUSH1 0x40 MLOAD PUSH2 0x150 SWAP2 SWAP1 PUSH2 0x1004 JUMP JUMPDEST PUSH1 0x40 MLOAD DUP1 SWAP2 SUB SWAP1 RETURN JUMPDEST PUSH2 0x161 PUSH2 0x4D6 JUMP JUMPDEST STOP JUMPDEST CALLVALUE DUP1 ISZERO PUSH2 0x16E JUMPI PUSH0 DUP1 REVERT JUMPDEST POP PUSH2 0x189 PUSH1 0x4 DUP1 CALLDATASIZE SUB DUP2 ADD SWAP1 PUSH2 0x184 SWAP2 SWAP1 PUSH2 0xFCA JUMP JUMPDEST PUSH2 0xD4A JUMP JUMPDEST PUSH1 0x40 MLOAD PUSH2 0x198 SWAP4 SWAP3 SWAP2 SWAP1 PUSH2 0x1037 JUMP JUMPDEST PUSH1 0x40 MLOAD DUP1 SWAP2 SUB SWAP1 RETURN JUMPDEST CALLVALUE DUP1 ISZERO PUSH2 0x1AC JUMPI PUSH0 DUP1 REVERT JUMPDEST POP PUSH2 0x1B5 PUSH2 0xD7B JUMP JUMPDEST PUSH1 0x40 MLOAD PUSH2 0x1C2 SWAP2 SWAP1 PUSH2 0xE7C JUMP JUMPDEST PUSH1 0x40 MLOAD DUP1 SWAP2 SUB SWAP1 RETURN JUMPDEST CALLVALUE DUP1 ISZERO PUSH2 0x1D6 JUMPI PUSH0 DUP1 REVERT JUMPDEST POP PUSH2 0x1F1 PUSH1 0x4 DUP1 CALLDATASIZE SUB DUP2 ADD SWAP1 PUSH2 0x1EC SWAP2 SWAP1 PUSH2 0x1096 JUMP JUMPDEST PUSH2 0xD87 JUMP JUMPDEST PUSH1 0x40 MLOAD PUSH2 0x1FE SWAP2 SWAP1 PUSH2 0x1004 JUMP JUMPDEST PUSH1 0x40 MLOAD DUP1 SWAP2 SUB SWAP1 RETURN JUMPDEST PUSH1 0x3 SLOAD DUP2 JUMP JUMPDEST PUSH1 0x60 PUSH1 0x1 DUP1 SLOAD DUP1 PUSH1 0x20 MUL PUSH1 0x20 ADD PUSH1 0x40 MLOAD SWAP1 DUP2 ADD PUSH1 0x40 MSTORE DUP1 SWAP3 SWAP2 SWAP1 DUP2 DUP2 MSTORE PUSH1 0x20 ADD DUP3 DUP1 SLOAD DUP1 ISZERO PUSH2 0x28E JUMPI PUSH1 0x20 MUL DUP3 ADD SWAP2 SWAP1 PUSH0 MSTORE PUSH1 0x20 PUSH0 KECCAK256 SWAP1 JUMPDEST DUP2 PUSH0 SWAP1 SLOAD SWAP1 PUSH2 0x100 EXP SWAP1 DIV PUSH20 0xFFFFFFFFFFFFFFFFFFFFFFFFFFFFFFFFFFFFFFFF AND PUSH20 0xFFFFFFFFFFFFFFFFFFFFFFFFFFFFFFFFFFFFFFFF AND DUP2 MSTORE PUSH1 0x20 ADD SWAP1 PUSH1 0x1 ADD SWAP1 DUP1 DUP4 GT PUSH2 0x245 JUMPI JUMPDEST POP POP POP POP POP SWAP1 POP SWAP1 JUMP JUMPDEST PUSH0 DUP1 PUSH0 CALLER PUSH20 0xFFFFFFFFFFFFFFFFFFFFFFFFFFFFFFFFFFFFFFFF AND PUSH20 0xFFFFFFFFFFFFFFFFFFFFFFFFFFFFFFFFFFFFFFFF AND DUP2 MSTORE PUSH1 0x20 ADD SWAP1 DUP2 MSTORE PUSH1 0x20 ADD PUSH0 KECCAK256 PUSH0 ADD SLOAD EQ PUSH2 0x318 JUMPI PUSH1 0x40 MLOAD PUSH32 0x8C379A000000000000000000000000000000000000000000000000000000000 DUP2 MSTORE PUSH1 0x4 ADD PUSH2 0x30F SWAP1 PUSH2 0x111B JUMP JUMPDEST PUSH1 0x40 MLOAD DUP1 SWAP2 SUB SWAP1 REVERT JUMPDEST PUSH0 PUSH1 0x1 DUP1 DUP1 SLOAD SWAP1 POP PUSH2 0x32A SWAP2 SWAP1 PUSH2 0x1166 JUMP JUMPDEST SWAP1 POP PUSH1 0x40 MLOAD DUP1 PUSH1 0x60 ADD PUSH1 0x40 MSTORE DUP1 DUP3 DUP2 MSTORE PUSH1 0x20 ADD PUSH0 ISZERO ISZERO DUP2 MSTORE PUSH1 0x20 ADD PUSH0 DUP2 MSTORE POP PUSH0 DUP1 CALLER PUSH20 0xFFFFFFFFFFFFFFFFFFFFFFFFFFFFFFFFFFFFFFFF AND PUSH20 0xFFFFFFFFFFFFFFFFFFFFFFFFFFFFFFFFFFFFFFFF AND DUP2 MSTORE PUSH1 0x20 ADD SWAP1 DUP2 MSTORE PUSH1 0x20 ADD PUSH0 KECCAK256 PUSH0 DUP3 ADD MLOAD DUP2 PUSH0 ADD SSTORE PUSH1 0x20 DUP3 ADD MLOAD DUP2 PUSH1 0x1 ADD PUSH0 PUSH2 0x100 EXP DUP2 SLOAD DUP2 PUSH1 0xFF MUL NOT AND SWAP1 DUP4 ISZERO ISZERO MUL OR SWAP1 SSTORE POP PUSH1 0x40 DUP3 ADD MLOAD DUP2 PUSH1 0x2 ADD SSTORE SWAP1 POP POP PUSH1 0x1 CALLER SWAP1 DUP1 PUSH1 0x1 DUP2 SLOAD ADD DUP1 DUP3 SSTORE DUP1 SWAP2 POP POP PUSH1 0x1 SWAP1 SUB SWAP1 PUSH0 MSTORE PUSH1 0x20 PUSH0 KECCAK256 ADD PUSH0 SWAP1 SWAP2 SWAP1 SWAP2 SWAP1 SWAP2 PUSH2 0x100 EXP DUP2 SLOAD DUP2 PUSH20 0xFFFFFFFFFFFFFFFFFFFFFFFFFFFFFFFFFFFFFFFF MUL NOT AND SWAP1 DUP4 PUSH20 0xFFFFFFFFFFFFFFFFFFFFFFFFFFFFFFFFFFFFFFFF AND MUL OR SWAP1 SSTORE POP CALLER PUSH20 0xFFFFFFFFFFFFFFFFFFFFFFFFFFFFFFFFFFFFFFFF AND PUSH32 0x2A0CF68FB8EFF8BFF9B991C78BB921B9214CE5CC99496B8AC04885FF0E37AE23 DUP3 PUSH1 0x40 MLOAD PUSH2 0x45F SWAP2 SWAP1 PUSH2 0xE7C JUMP JUMPDEST PUSH1 0x40 MLOAD DUP1 SWAP2 SUB SWAP1 LOG2 POP JUMP JUMPDEST PUSH0 DUP1 PUSH0 DUP4 PUSH20 0xFFFFFFFFFFFFFFFFFFFFFFFFFFFFFFFFFFFFFFFF AND PUSH20 0xFFFFFFFFFFFFFFFFFFFFFFFFFFFFFFFFFFFFFFFF AND DUP2 MSTORE PUSH1 0x20 ADD SWAP1 DUP2 MSTORE PUSH1 0x20 ADD PUSH0 KECCAK256 PUSH0 ADD SLOAD SWAP1 POP SWAP2 SWAP1 POP JUMP JUMPDEST PUSH1 0x2 PUSH0 SWAP1 SLOAD SWAP1 PUSH2 0x100 EXP SWAP1 DIV PUSH20 0xFFFFFFFFFFFFFFFFFFFFFFFFFFFFFFFFFFFFFFFF AND DUP2 JUMP JUMPDEST PUSH0 DUP1 PUSH0 CALLER PUSH20 0xFFFFFFFFFFFFFFFFFFFFFFFFFFFFFFFFFFFFFFFF AND PUSH20 0xFFFFFFFFFFFFFFFFFFFFFFFFFFFFFFFFFFFFFFFF AND DUP2 MSTORE PUSH1 0x20 ADD SWAP1 DUP2 MSTORE PUSH1 0x20 ADD PUSH0 KECCAK256 PUSH0 ADD SLOAD SUB PUSH2 0x556 JUMPI PUSH1 0x40 MLOAD PUSH32 0x8C379A000000000000000000000000000000000000000000000000000000000 DUP2 MSTORE PUSH1 0x4 ADD PUSH2 0x54D SWAP1 PUSH2 0x11E3 JUMP JUMPDEST PUSH1 0x40 MLOAD DUP1 SWAP2 SUB SWAP1 REVERT JUMPDEST PUSH0 DUP1 CALLER PUSH20 0xFFFFFFFFFFFFFFFFFFFFFFFFFFFFFFFFFFFFFFFF AND PUSH20 0xFFFFFFFFFFFFFFFFFFFFFFFFFFFFFFFFFFFFFFFF AND DUP2 MSTORE PUSH1 0x20 ADD SWAP1 DUP2 MSTORE PUSH1 0x20 ADD PUSH0 KECCAK256 PUSH1 0x1 ADD PUSH0 SWAP1 SLOAD SWAP1 PUSH2 0x100 EXP SWAP1 DIV PUSH1 0xFF AND ISZERO PUSH2 0x5E2 JUMPI PUSH1 0x40 MLOAD PUSH32 0x8C379A000000000000000000000000000000000000000000000000000000000 DUP2 MSTORE PUSH1 0x4 ADD PUSH2 0x5D9 SWAP1 PUSH2 0x124B JUMP JUMPDEST PUSH1 0x40 MLOAD DUP1 SWAP2 SUB SWAP1 REVERT JUMPDEST PUSH1 0x3 SLOAD CALLVALUE EQ PUSH2 0x626 JUMPI PUSH1 0x40 MLOAD PUSH32 0x8C379A000000000000000000000000000000000000000000000000000000000 DUP2 MSTORE PUSH1 0x4 ADD PUSH2 0x61D SWAP1 PUSH2 0x12B3 JUMP JUMPDEST PUSH1 0x40 MLOAD DUP1 SWAP2 SUB SWAP1 REVERT JUMPDEST PUSH1 0x2 PUSH0 SWAP1 SLOAD SWAP1 PUSH2 0x100 EXP SWAP1 DIV PUSH20 0xFFFFFFFFFFFFFFFFFFFFFFFFFFFFFFFFFFFFFFFF AND PUSH20 0xFFFFFFFFFFFFFFFFFFFFFFFFFFFFFFFFFFFFFFFF AND PUSH2 0x8FC CALLVALUE SWAP1 DUP2 ISZERO MUL SWAP1 PUSH1 0x40 MLOAD PUSH0 PUSH1 0x40 MLOAD DUP1 DUP4 SUB DUP2 DUP6 DUP9 DUP9 CALL SWAP4 POP POP POP POP ISZERO DUP1 ISZERO PUSH2 0x68A JUMPI RETURNDATASIZE PUSH0 DUP1 RETURNDATACOPY RETURNDATASIZE PUSH0 REVERT JUMPDEST POP PUSH1 0x1 PUSH0 DUP1 CALLER PUSH20 0xFFFFFFFFFFFFFFFFFFFFFFFFFFFFFFFFFFFFFFFF AND PUSH20 0xFFFFFFFFFFFFFFFFFFFFFFFFFFFFFFFFFFFFFFFF AND DUP2 MSTORE PUSH1 0x20 ADD SWAP1 DUP2 MSTORE PUSH1 0x20 ADD PUSH0 KECCAK256 PUSH1 0x1 ADD PUSH0 PUSH2 0x100 EXP DUP2 SLOAD DUP2 PUSH1 0xFF MUL NOT AND SWAP1 DUP4 ISZERO ISZERO MUL OR SWAP1 SSTORE POP PUSH0 TIMESTAMP SWAP1 POP DUP1 PUSH0 DUP1 CALLER PUSH20 0xFFFFFFFFFFFFFFFFFFFFFFFFFFFFFFFFFFFFFFFF AND PUSH20 0xFFFFFFFFFFFFFFFFFFFFFFFFFFFFFFFFFFFFFFFF AND DUP2 MSTORE PUSH1 0x20 ADD SWAP1 DUP2 MSTORE PUSH1 0x20 ADD PUSH0 KECCAK256 PUSH1 0x2 ADD DUP2 SWAP1 SSTORE POP PUSH0 PUSH1 0x1 DUP1 SLOAD SWAP1 POP PUSH8 0xFFFFFFFFFFFFFFFF DUP2 GT ISZERO PUSH2 0x74A JUMPI PUSH2 0x749 PUSH2 0x12D1 JUMP JUMPDEST JUMPDEST PUSH1 0x40 MLOAD SWAP1 DUP1 DUP3 MSTORE DUP1 PUSH1 0x20 MUL PUSH1 0x20 ADD DUP3 ADD PUSH1 0x40 MSTORE DUP1 ISZERO PUSH2 0x778 JUMPI DUP2 PUSH1 0x20 ADD PUSH1 0x20 DUP3 MUL DUP1 CALLDATASIZE DUP4 CALLDATACOPY DUP1 DUP3 ADD SWAP2 POP POP SWAP1 POP JUMPDEST POP SWAP1 POP PUSH0 DUP1 JUMPDEST PUSH1 0x1 DUP1 SLOAD SWAP1 POP DUP2 LT ISZERO PUSH2 0x8BC JUMPI PUSH0 DUP1 PUSH1 0x1 DUP4 DUP2 SLOAD DUP2 LT PUSH2 0x7A1 JUMPI PUSH2 0x7A0 PUSH2 0x12FE JUMP JUMPDEST JUMPDEST SWAP1 PUSH0 MSTORE PUSH1 0x20 PUSH0 KECCAK256 ADD PUSH0 SWAP1 SLOAD SWAP1 PUSH2 0x100 EXP SWAP1 DIV PUSH20 0xFFFFFFFFFFFFFFFFFFFFFFFFFFFFFFFFFFFFFFFF AND PUSH20 0xFFFFFFFFFFFFFFFFFFFFFFFFFFFFFFFFFFFFFFFF AND PUSH20 0xFFFFFFFFFFFFFFFFFFFFFFFFFFFFFFFFFFFFFFFF AND DUP2 MSTORE PUSH1 0x20 ADD SWAP1 DUP2 MSTORE PUSH1 0x20 ADD PUSH0 KECCAK256 PUSH1 0x1 ADD PUSH0 SWAP1 SLOAD SWAP1 PUSH2 0x100 EXP SWAP1 DIV PUSH1 0xFF AND ISZERO PUSH2 0x8AF JUMPI PUSH1 0x1 DUP2 DUP2 SLOAD DUP2 LT PUSH2 0x82B JUMPI PUSH2 0x82A PUSH2 0x12FE JUMP JUMPDEST JUMPDEST SWAP1 PUSH0 MSTORE PUSH1 0x20 PUSH0 KECCAK256 ADD PUSH0 SWAP1 SLOAD SWAP1 PUSH2 0x100 EXP SWAP1 DIV PUSH20 0xFFFFFFFFFFFFFFFFFFFFFFFFFFFFFFFFFFFFFFFF AND DUP4 DUP4 DUP2 MLOAD DUP2 LT PUSH2 0x866 JUMPI PUSH2 0x865 PUSH2 0x12FE JUMP JUMPDEST JUMPDEST PUSH1 0x20 MUL PUSH1 0x20 ADD ADD SWAP1 PUSH20 0xFFFFFFFFFFFFFFFFFFFFFFFFFFFFFFFFFFFFFFFF AND SWAP1 DUP2 PUSH20 0xFFFFFFFFFFFFFFFFFFFFFFFFFFFFFFFFFFFFFFFF AND DUP2 MSTORE POP POP DUP2 DUP1 PUSH2 0x8AB SWAP1 PUSH2 0x132B JUMP JUMPDEST SWAP3 POP POP JUMPDEST DUP1 DUP1 PUSH1 0x1 ADD SWAP2 POP POP PUSH2 0x77E JUMP JUMPDEST POP PUSH0 JUMPDEST PUSH1 0x1 DUP3 PUSH2 0x8CC SWAP2 SWAP1 PUSH2 0x1372 JUMP JUMPDEST DUP2 LT ISZERO PUSH2 0xABA JUMPI PUSH0 JUMPDEST PUSH1 0x1 DUP3 DUP5 PUSH2 0x8E3 SWAP2 SWAP1 PUSH2 0x1372 JUMP JUMPDEST PUSH2 0x8ED SWAP2 SWAP1 PUSH2 0x1372 JUMP JUMPDEST DUP2 LT ISZERO PUSH2 0xAAC JUMPI PUSH0 DUP1 DUP6 PUSH1 0x1 DUP5 PUSH2 0x904 SWAP2 SWAP1 PUSH2 0x1166 JUMP JUMPDEST DUP2 MLOAD DUP2 LT PUSH2 0x915 JUMPI PUSH2 0x914 PUSH2 0x12FE JUMP JUMPDEST JUMPDEST PUSH1 0x20 MUL PUSH1 0x20 ADD ADD MLOAD PUSH20 0xFFFFFFFFFFFFFFFFFFFFFFFFFFFFFFFFFFFFFFFF AND PUSH20 0xFFFFFFFFFFFFFFFFFFFFFFFFFFFFFFFFFFFFFFFF AND DUP2 MSTORE PUSH1 0x20 ADD SWAP1 DUP2 MSTORE PUSH1 0x20 ADD PUSH0 KECCAK256 PUSH1 0x2 ADD SLOAD PUSH0 DUP1 DUP7 DUP5 DUP2 MLOAD DUP2 LT PUSH2 0x96F JUMPI PUSH2 0x96E PUSH2 0x12FE JUMP JUMPDEST JUMPDEST PUSH1 0x20 MUL PUSH1 0x20 ADD ADD MLOAD PUSH20 0xFFFFFFFFFFFFFFFFFFFFFFFFFFFFFFFFFFFFFFFF AND PUSH20 0xFFFFFFFFFFFFFFFFFFFFFFFFFFFFFFFFFFFFFFFF AND DUP2 MSTORE PUSH1 0x20 ADD SWAP1 DUP2 MSTORE PUSH1 0x20 ADD PUSH0 KECCAK256 PUSH1 0x2 ADD SLOAD GT ISZERO PUSH2 0xA9F JUMPI DUP4 PUSH1 0x1 DUP3 PUSH2 0x9C8 SWAP2 SWAP1 PUSH2 0x1166 JUMP JUMPDEST DUP2 MLOAD DUP2 LT PUSH2 0x9D9 JUMPI PUSH2 0x9D8 PUSH2 0x12FE JUMP JUMPDEST JUMPDEST PUSH1 0x20 MUL PUSH1 0x20 ADD ADD MLOAD DUP5 DUP3 DUP2 MLOAD DUP2 LT PUSH2 0x9F4 JUMPI PUSH2 0x9F3 PUSH2 0x12FE JUMP JUMPDEST JUMPDEST PUSH1 0x20 MUL PUSH1 0x20 ADD ADD MLOAD DUP6 DUP4 DUP2 MLOAD DUP2 LT PUSH2 0xA0F JUMPI PUSH2 0xA0E PUSH2 0x12FE JUMP JUMPDEST JUMPDEST PUSH1 0x20 MUL PUSH1 0x20 ADD ADD DUP7 PUSH1 0x1 DUP6 PUSH2 0xA24 SWAP2 SWAP1 PUSH2 0x1166 JUMP JUMPDEST DUP2 MLOAD DUP2 LT PUSH2 0xA35 JUMPI PUSH2 0xA34 PUSH2 0x12FE JUMP JUMPDEST JUMPDEST PUSH1 0x20 MUL PUSH1 0x20 ADD ADD DUP3 PUSH20 0xFFFFFFFFFFFFFFFFFFFFFFFFFFFFFFFFFFFFFFFF AND PUSH20 0xFFFFFFFFFFFFFFFFFFFFFFFFFFFFFFFFFFFFFFFF AND DUP2 MSTORE POP DUP3 PUSH20 0xFFFFFFFFFFFFFFFFFFFFFFFFFFFFFFFFFFFFFFFF AND PUSH20 0xFFFFFFFFFFFFFFFFFFFFFFFFFFFFFFFFFFFFFFFF AND DUP2 MSTORE POP POP POP JUMPDEST DUP1 DUP1 PUSH1 0x1 ADD SWAP2 POP POP PUSH2 0x8D5 JUMP JUMPDEST POP DUP1 DUP1 PUSH1 0x1 ADD SWAP2 POP POP PUSH2 0x8BF JUMP JUMPDEST POP PUSH0 JUMPDEST PUSH1 0x1 DUP1 SLOAD SWAP1 POP DUP2 LT ISZERO PUSH2 0xBFA JUMPI PUSH0 DUP1 PUSH1 0x1 DUP4 DUP2 SLOAD DUP2 LT PUSH2 0xAE0 JUMPI PUSH2 0xADF PUSH2 0x12FE JUMP JUMPDEST JUMPDEST SWAP1 PUSH0 MSTORE PUSH1 0x20 PUSH0 KECCAK256 ADD PUSH0 SWAP1 SLOAD SWAP1 PUSH2 0x100 EXP SWAP1 DIV PUSH20 0xFFFFFFFFFFFFFFFFFFFFFFFFFFFFFFFFFFFFFFFF AND PUSH20 0xFFFFFFFFFFFFFFFFFFFFFFFFFFFFFFFFFFFFFFFF AND PUSH20 0xFFFFFFFFFFFFFFFFFFFFFFFFFFFFFFFFFFFFFFFF AND DUP2 MSTORE PUSH1 0x20 ADD SWAP1 DUP2 MSTORE PUSH1 0x20 ADD PUSH0 KECCAK256 PUSH1 0x1 ADD PUSH0 SWAP1 SLOAD SWAP1 PUSH2 0x100 EXP SWAP1 DIV PUSH1 0xFF AND PUSH2 0xBED JUMPI PUSH1 0x1 DUP2 DUP2 SLOAD DUP2 LT PUSH2 0xB69 JUMPI PUSH2 0xB68 PUSH2 0x12FE JUMP JUMPDEST JUMPDEST SWAP1 PUSH0 MSTORE PUSH1 0x20 PUSH0 KECCAK256 ADD PUSH0 SWAP1 SLOAD SWAP1 PUSH2 0x100 EXP SWAP1 DIV PUSH20 0xFFFFFFFFFFFFFFFFFFFFFFFFFFFFFFFFFFFFFFFF AND DUP4 DUP4 DUP2 MLOAD DUP2 LT PUSH2 0xBA4 JUMPI PUSH2 0xBA3 PUSH2 0x12FE JUMP JUMPDEST JUMPDEST PUSH1 0x20 MUL PUSH1 0x20 ADD ADD SWAP1 PUSH20 0xFFFFFFFFFFFFFFFFFFFFFFFFFFFFFFFFFFFFFFFF AND SWAP1 DUP2 PUSH20 0xFFFFFFFFFFFFFFFFFFFFFFFFFFFFFFFFFFFFFFFF AND DUP2 MSTORE POP POP DUP2 DUP1 PUSH2 0xBE9 SWAP1 PUSH2 0x132B JUMP JUMPDEST SWAP3 POP POP JUMPDEST DUP1 DUP1 PUSH1 0x1 ADD SWAP2 POP POP PUSH2 0xABD JUMP JUMPDEST POP DUP2 PUSH1 0x1 SWAP1 DUP1 MLOAD SWAP1 PUSH1 0x20 ADD SWAP1 PUSH2 0xC11 SWAP3 SWAP2 SWAP1 PUSH2 0xDC2 JUMP JUMPDEST POP PUSH0 JUMPDEST PUSH1 0x1 DUP1 SLOAD SWAP1 POP DUP2 LT ISZERO PUSH2 0xCB8 JUMPI PUSH1 0x1 DUP2 PUSH2 0xC2E SWAP2 SWAP1 PUSH2 0x1166 JUMP JUMPDEST PUSH0 DUP1 PUSH1 0x1 DUP5 DUP2 SLOAD DUP2 LT PUSH2 0xC44 JUMPI PUSH2 0xC43 PUSH2 0x12FE JUMP JUMPDEST JUMPDEST SWAP1 PUSH0 MSTORE PUSH1 0x20 PUSH0 KECCAK256 ADD PUSH0 SWAP1 SLOAD SWAP1 PUSH2 0x100 EXP SWAP1 DIV PUSH20 0xFFFFFFFFFFFFFFFFFFFFFFFFFFFFFFFFFFFFFFFF AND PUSH20 0xFFFFFFFFFFFFFFFFFFFFFFFFFFFFFFFFFFFFFFFF AND PUSH20 0xFFFFFFFFFFFFFFFFFFFFFFFFFFFFFFFFFFFFFFFF AND DUP2 MSTORE PUSH1 0x20 ADD SWAP1 DUP2 MSTORE PUSH1 0x20 ADD PUSH0 KECCAK256 PUSH0 ADD DUP2 SWAP1 SSTORE POP DUP1 DUP1 PUSH1 0x1 ADD SWAP2 POP POP PUSH2 0xC14 JUMP JUMPDEST POP CALLER PUSH20 0xFFFFFFFFFFFFFFFFFFFFFFFFFFFFFFFFFFFFFFFF AND PUSH32 0x4C5B3C2563DD2DA1DAE5FFA19C4657E3E03098E8DD6B1EA852C6DCB318AFED8 PUSH0 DUP1 CALLER PUSH20 0xFFFFFFFFFFFFFFFFFFFFFFFFFFFFFFFFFFFFFFFF AND PUSH20 0xFFFFFFFFFFFFFFFFFFFFFFFFFFFFFFFFFFFFFFFF AND DUP2 MSTORE PUSH1 0x20 ADD SWAP1 DUP2 MSTORE PUSH1 0x20 ADD PUSH0 KECCAK256 PUSH0 ADD SLOAD PUSH1 0x40 MLOAD PUSH2 0xD3D SWAP2 SWAP1 PUSH2 0xE7C JUMP JUMPDEST PUSH1 0x40 MLOAD DUP1 SWAP2 SUB SWAP1 LOG2 POP POP POP JUMP JUMPDEST PUSH0 PUSH1 0x20 MSTORE DUP1 PUSH0 MSTORE PUSH1 0x40 PUSH0 KECCAK256 PUSH0 SWAP2 POP SWAP1 POP DUP1 PUSH0 ADD SLOAD SWAP1 DUP1 PUSH1 0x1 ADD PUSH0 SWAP1 SLOAD SWAP1 PUSH2 0x100 EXP SWAP1 DIV PUSH1 0xFF AND SWAP1 DUP1 PUSH1 0x2 ADD SLOAD SWAP1 POP DUP4 JUMP JUMPDEST PUSH0 PUSH1 0x1 DUP1 SLOAD SWAP1 POP SWAP1 POP SWAP1 JUMP JUMPDEST PUSH1 0x1 DUP2 DUP2 SLOAD DUP2 LT PUSH2 0xD96 JUMPI PUSH0 DUP1 REVERT JUMPDEST SWAP1 PUSH0 MSTORE PUSH1 0x20 PUSH0 KECCAK256 ADD PUSH0 SWAP2 POP SLOAD SWAP1 PUSH2 0x100 EXP SWAP1 DIV PUSH20 0xFFFFFFFFFFFFFFFFFFFFFFFFFFFFFFFFFFFFFFFF AND DUP2 JUMP JUMPDEST DUP3 DUP1 SLOAD DUP3 DUP3 SSTORE SWAP1 PUSH0 MSTORE PUSH1 0x20 PUSH0 KECCAK256 SWAP1 DUP2 ADD SWAP3 DUP3 ISZERO PUSH2 0xE38 JUMPI SWAP2 PUSH1 0x20 MUL DUP3 ADD JUMPDEST DUP3 DUP2 GT ISZERO PUSH2 0xE37 JUMPI DUP3 MLOAD DUP3 PUSH0 PUSH2 0x100 EXP DUP2 SLOAD DUP2 PUSH20 0xFFFFFFFFFFFFFFFFFFFFFFFFFFFFFFFFFFFFFFFF MUL NOT AND SWAP1 DUP4 PUSH20 0xFFFFFFFFFFFFFFFFFFFFFFFFFFFFFFFFFFFFFFFF AND MUL OR SWAP1 SSTORE POP SWAP2 PUSH1 0x20 ADD SWAP2 SWAP1 PUSH1 0x1 ADD SWAP1 PUSH2 0xDE0 JUMP JUMPDEST JUMPDEST POP SWAP1 POP PUSH2 0xE45 SWAP2 SWAP1 PUSH2 0xE49 JUMP JUMPDEST POP SWAP1 JUMP JUMPDEST JUMPDEST DUP1 DUP3 GT ISZERO PUSH2 0xE60 JUMPI PUSH0 DUP2 PUSH0 SWAP1 SSTORE POP PUSH1 0x1 ADD PUSH2 0xE4A JUMP JUMPDEST POP SWAP1 JUMP JUMPDEST PUSH0 DUP2 SWAP1 POP SWAP2 SWAP1 POP JUMP JUMPDEST PUSH2 0xE76 DUP2 PUSH2 0xE64 JUMP JUMPDEST DUP3 MSTORE POP POP JUMP JUMPDEST PUSH0 PUSH1 0x20 DUP3 ADD SWAP1 POP PUSH2 0xE8F PUSH0 DUP4 ADD DUP5 PUSH2 0xE6D JUMP JUMPDEST SWAP3 SWAP2 POP POP JUMP JUMPDEST PUSH0 DUP2 MLOAD SWAP1 POP SWAP2 SWAP1 POP JUMP JUMPDEST PUSH0 DUP3 DUP3 MSTORE PUSH1 0x20 DUP3 ADD SWAP1 POP SWAP3 SWAP2 POP POP JUMP JUMPDEST PUSH0 DUP2 SWAP1 POP PUSH1 0x20 DUP3 ADD SWAP1 POP SWAP2 SWAP1 POP JUMP JUMPDEST PUSH0 PUSH20 0xFFFFFFFFFFFFFFFFFFFFFFFFFFFFFFFFFFFFFFFF DUP3 AND SWAP1 POP SWAP2 SWAP1 POP JUMP JUMPDEST PUSH0 PUSH2 0xEE7 DUP3 PUSH2 0xEBE JUMP JUMPDEST SWAP1 POP SWAP2 SWAP1 POP JUMP JUMPDEST PUSH2 0xEF7 DUP2 PUSH2 0xEDD JUMP JUMPDEST DUP3 MSTORE POP POP JUMP JUMPDEST PUSH0 PUSH2 0xF08 DUP4 DUP4 PUSH2 0xEEE JUMP JUMPDEST PUSH1 0x20 DUP4 ADD SWAP1 POP SWAP3 SWAP2 POP POP JUMP JUMPDEST PUSH0 PUSH1 0x20 DUP3 ADD SWAP1 POP SWAP2 SWAP1 POP JUMP JUMPDEST PUSH0 PUSH2 0xF2A DUP3 PUSH2 0xE95 JUMP JUMPDEST PUSH2 0xF34 DUP2 DUP6 PUSH2 0xE9F JUMP JUMPDEST SWAP4 POP PUSH2 0xF3F DUP4 PUSH2 0xEAF JUMP JUMPDEST DUP1 PUSH0 JUMPDEST DUP4 DUP2 LT ISZERO PUSH2 0xF6F JUMPI DUP2 MLOAD PUSH2 0xF56 DUP9 DUP3 PUSH2 0xEFD JUMP JUMPDEST SWAP8 POP PUSH2 0xF61 DUP4 PUSH2 0xF14 JUMP JUMPDEST SWAP3 POP POP PUSH1 0x1 DUP2 ADD SWAP1 POP PUSH2 0xF42 JUMP JUMPDEST POP DUP6 SWAP4 POP POP POP POP SWAP3 SWAP2 POP POP JUMP JUMPDEST PUSH0 PUSH1 0x20 DUP3 ADD SWAP1 POP DUP2 DUP2 SUB PUSH0 DUP4 ADD MSTORE PUSH2 0xF94 DUP2 DUP5 PUSH2 0xF20 JUMP JUMPDEST SWAP1 POP SWAP3 SWAP2 POP POP JUMP JUMPDEST PUSH0 DUP1 REVERT JUMPDEST PUSH2 0xFA9 DUP2 PUSH2 0xEDD JUMP JUMPDEST DUP2 EQ PUSH2 0xFB3 JUMPI PUSH0 DUP1 REVERT JUMPDEST POP JUMP JUMPDEST PUSH0 DUP2 CALLDATALOAD SWAP1 POP PUSH2 0xFC4 DUP2 PUSH2 0xFA0 JUMP JUMPDEST SWAP3 SWAP2 POP POP JUMP JUMPDEST PUSH0 PUSH1 0x20 DUP3 DUP5 SUB SLT ISZERO PUSH2 0xFDF JUMPI PUSH2 0xFDE PUSH2 0xF9C JUMP JUMPDEST JUMPDEST PUSH0 PUSH2 0xFEC DUP5 DUP3 DUP6 ADD PUSH2 0xFB6 JUMP JUMPDEST SWAP2 POP POP SWAP3 SWAP2 POP POP JUMP JUMPDEST PUSH2 0xFFE DUP2 PUSH2 0xEDD JUMP JUMPDEST DUP3 MSTORE POP POP JUMP JUMPDEST PUSH0 PUSH1 0x20 DUP3 ADD SWAP1 POP PUSH2 0x1017 PUSH0 DUP4 ADD DUP5 PUSH2 0xFF5 JUMP JUMPDEST SWAP3 SWAP2 POP POP JUMP JUMPDEST PUSH0 DUP2 ISZERO ISZERO SWAP1 POP SWAP2 SWAP1 POP JUMP JUMPDEST PUSH2 0x1031 DUP2 PUSH2 0x101D JUMP JUMPDEST DUP3 MSTORE POP POP JUMP JUMPDEST PUSH0 PUSH1 0x60 DUP3 ADD SWAP1 POP PUSH2 0x104A PUSH0 DUP4 ADD DUP7 PUSH2 0xE6D JUMP JUMPDEST PUSH2 0x1057 PUSH1 0x20 DUP4 ADD DUP6 PUSH2 0x1028 JUMP JUMPDEST PUSH2 0x1064 PUSH1 0x40 DUP4 ADD DUP5 PUSH2 0xE6D JUMP JUMPDEST SWAP5 SWAP4 POP POP POP POP JUMP JUMPDEST PUSH2 0x1075 DUP2 PUSH2 0xE64 JUMP JUMPDEST DUP2 EQ PUSH2 0x107F JUMPI PUSH0 DUP1 REVERT JUMPDEST POP JUMP JUMPDEST PUSH0 DUP2 CALLDATALOAD SWAP1 POP PUSH2 0x1090 DUP2 PUSH2 0x106C JUMP JUMPDEST SWAP3 SWAP2 POP POP JUMP JUMPDEST PUSH0 PUSH1 0x20 DUP3 DUP5 SUB SLT ISZERO PUSH2 0x10AB JUMPI PUSH2 0x10AA PUSH2 0xF9C JUMP JUMPDEST JUMPDEST PUSH0 PUSH2 0x10B8 DUP5 DUP3 DUP6 ADD PUSH2 0x1082 JUMP JUMPDEST SWAP2 POP POP SWAP3 SWAP2 POP POP JUMP JUMPDEST PUSH0 DUP3 DUP3 MSTORE PUSH1 0x20 DUP3 ADD SWAP1 POP SWAP3 SWAP2 POP POP JUMP JUMPDEST PUSH32 0x416C726561647920696E20717565756500000000000000000000000000000000 PUSH0 DUP3 ADD MSTORE POP JUMP JUMPDEST PUSH0 PUSH2 0x1105 PUSH1 0x10 DUP4 PUSH2 0x10C1 JUMP JUMPDEST SWAP2 POP PUSH2 0x1110 DUP3 PUSH2 0x10D1 JUMP JUMPDEST PUSH1 0x20 DUP3 ADD SWAP1 POP SWAP2 SWAP1 POP JUMP JUMPDEST PUSH0 PUSH1 0x20 DUP3 ADD SWAP1 POP DUP2 DUP2 SUB PUSH0 DUP4 ADD MSTORE PUSH2 0x1132 DUP2 PUSH2 0x10F9 JUMP JUMPDEST SWAP1 POP SWAP2 SWAP1 POP JUMP JUMPDEST PUSH32 0x4E487B7100000000000000000000000000000000000000000000000000000000 PUSH0 MSTORE PUSH1 0x11 PUSH1 0x4 MSTORE PUSH1 0x24 PUSH0 REVERT JUMPDEST PUSH0 PUSH2 0x1170 DUP3 PUSH2 0xE64 JUMP JUMPDEST SWAP2 POP PUSH2 0x117B DUP4 PUSH2 0xE64 JUMP JUMPDEST SWAP3 POP DUP3 DUP3 ADD SWAP1 POP DUP1 DUP3 GT ISZERO PUSH2 0x1193 JUMPI PUSH2 0x1192 PUSH2 0x1139 JUMP JUMPDEST JUMPDEST SWAP3 SWAP2 POP POP JUMP JUMPDEST PUSH32 0x4E6F7420696E2071756575650000000000000000000000000000000000000000 PUSH0 DUP3 ADD MSTORE POP JUMP JUMPDEST PUSH0 PUSH2 0x11CD PUSH1 0xC DUP4 PUSH2 0x10C1 JUMP JUMPDEST SWAP2 POP PUSH2 0x11D8 DUP3 PUSH2 0x1199 JUMP JUMPDEST PUSH1 0x20 DUP3 ADD SWAP1 POP SWAP2 SWAP1 POP JUMP JUMPDEST PUSH0 PUSH1 0x20 DUP3 ADD SWAP1 POP DUP2 DUP2 SUB PUSH0 DUP4 ADD MSTORE PUSH2 0x11FA DUP2 PUSH2 0x11C1 JUMP JUMPDEST SWAP1 POP SWAP2 SWAP1 POP JUMP JUMPDEST PUSH32 0x416C726561647920612056495000000000000000000000000000000000000000 PUSH0 DUP3 ADD MSTORE POP JUMP JUMPDEST PUSH0 PUSH2 0x1235 PUSH1 0xD DUP4 PUSH2 0x10C1 JUMP JUMPDEST SWAP2 POP PUSH2 0x1240 DUP3 PUSH2 0x1201 JUMP JUMPDEST PUSH1 0x20 DUP3 ADD SWAP1 POP SWAP2 SWAP1 POP JUMP JUMPDEST PUSH0 PUSH1 0x20 DUP3 ADD SWAP1 POP DUP2 DUP2 SUB PUSH0 DUP4 ADD MSTORE PUSH2 0x1262 DUP2 PUSH2 0x1229 JUMP JUMPDEST SWAP1 POP SWAP2 SWAP1 POP JUMP JUMPDEST PUSH32 0x496E636F72726563742056495020636F73740000000000000000000000000000 PUSH0 DUP3 ADD MSTORE POP JUMP JUMPDEST PUSH0 PUSH2 0x129D PUSH1 0x12 DUP4 PUSH2 0x10C1 JUMP JUMPDEST SWAP2 POP PUSH2 0x12A8 DUP3 PUSH2 0x1269 JUMP JUMPDEST PUSH1 0x20 DUP3 ADD SWAP1 POP SWAP2 SWAP1 POP JUMP JUMPDEST PUSH0 PUSH1 0x20 DUP3 ADD SWAP1 POP DUP2 DUP2 SUB PUSH0 DUP4 ADD MSTORE PUSH2 0x12CA DUP2 PUSH2 0x1291 JUMP JUMPDEST SWAP1 POP SWAP2 SWAP1 POP JUMP JUMPDEST PUSH32 0x4E487B7100000000000000000000000000000000000000000000000000000000 PUSH0 MSTORE PUSH1 0x41 PUSH1 0x4 MSTORE PUSH1 0x24 PUSH0 REVERT JUMPDEST PUSH32 0x4E487B7100000000000000000000000000000000000000000000000000000000 PUSH0 MSTORE PUSH1 0x32 PUSH1 0x4 MSTORE PUSH1 0x24 PUSH0 REVERT JUMPDEST PUSH0 PUSH2 0x1335 DUP3 PUSH2 0xE64 JUMP JUMPDEST SWAP2 POP PUSH32 0xFFFFFFFFFFFFFFFFFFFFFFFFFFFFFFFFFFFFFFFFFFFFFFFFFFFFFFFFFFFFFFFF DUP3 SUB PUSH2 0x1367 JUMPI PUSH2 0x1366 PUSH2 0x1139 JUMP JUMPDEST JUMPDEST PUSH1 0x1 DUP3 ADD SWAP1 POP SWAP2 SWAP1 POP JUMP JUMPDEST PUSH0 PUSH2 0x137C DUP3 PUSH2 0xE64 JUMP JUMPDEST SWAP2 POP PUSH2 0x1387 DUP4 PUSH2 0xE64 JUMP JUMPDEST SWAP3 POP DUP3 DUP3 SUB SWAP1 POP DUP2 DUP2 GT ISZERO PUSH2 0x139F JUMPI PUSH2 0x139E PUSH2 0x1139 JUMP JUMPDEST JUMPDEST SWAP3 SWAP2 POP POP JUMP INVALID LOG2 PUSH5 0x6970667358 0x22 SLT KECCAK256 0x4C 0xC0 ISZERO 0xA9 JUMP 0xE5 0x24 PUSH30 0x5D828D6A335ACFF4E84315E59348D1A830004C33E2A5DF5B64736F6C6343 STOP ADDMOD BYTE STOP CALLER "
				},
				"gasEstimates": {
					"creation": {
						"codeDepositCost": "1016600",
						"executionCost": "infinite",
						"totalCost": "infinite"
					},
					"external": {
						"getFullQueue()": "infinite",
						"getQueueNumber(address)": "2901",
						"getQueueSize()": "2506",
						"joinQueue()": "infinite",
						"owner()": "2508",
						"queue(uint256)": "5032",
						"upgradeToVIP()": "infinite",
						"users(address)": "infinite",
						"vipCost()": "2426"
					}
				},
				"methodIdentifiers": {
					"getFullQueue()": "55ec29cb",
					"getQueueNumber(address)": "71fb1a79",
					"getQueueSize()": "ce348c6f",
					"joinQueue()": "5ecac9d4",
					"owner()": "8da5cb5b",
					"queue(uint256)": "ddf0b009",
					"upgradeToVIP()": "9fff00af",
					"users(address)": "a87430ba",
					"vipCost()": "5531940e"
				}
			},
			"storageLayout": {
				"storage": [
					{
						"astId": 13,
						"contract": "contracts/QueueSystem.sol:QueueSystem",
						"label": "users",
						"offset": 0,
						"slot": "0",
						"type": "t_mapping(t_address,t_struct(User)8_storage)"
					},
					{
						"astId": 16,
						"contract": "contracts/QueueSystem.sol:QueueSystem",
						"label": "queue",
						"offset": 0,
						"slot": "1",
						"type": "t_array(t_address)dyn_storage"
					},
					{
						"astId": 18,
						"contract": "contracts/QueueSystem.sol:QueueSystem",
						"label": "owner",
						"offset": 0,
						"slot": "2",
						"type": "t_address"
					},
					{
						"astId": 21,
						"contract": "contracts/QueueSystem.sol:QueueSystem",
						"label": "vipCost",
						"offset": 0,
						"slot": "3",
						"type": "t_uint256"
					}
				],
				"types": {
					"t_address": {
						"encoding": "inplace",
						"label": "address",
						"numberOfBytes": "20"
					},
					"t_array(t_address)dyn_storage": {
						"base": "t_address",
						"encoding": "dynamic_array",
						"label": "address[]",
						"numberOfBytes": "32"
					},
					"t_bool": {
						"encoding": "inplace",
						"label": "bool",
						"numberOfBytes": "1"
					},
					"t_mapping(t_address,t_struct(User)8_storage)": {
						"encoding": "mapping",
						"key": "t_address",
						"label": "mapping(address => struct QueueSystem.User)",
						"numberOfBytes": "32",
						"value": "t_struct(User)8_storage"
					},
					"t_struct(User)8_storage": {
						"encoding": "inplace",
						"label": "struct QueueSystem.User",
						"members": [
							{
								"astId": 3,
								"contract": "contracts/QueueSystem.sol:QueueSystem",
								"label": "queueNumber",
								"offset": 0,
								"slot": "0",
								"type": "t_uint256"
							},
							{
								"astId": 5,
								"contract": "contracts/QueueSystem.sol:QueueSystem",
								"label": "isVIP",
								"offset": 0,
								"slot": "1",
								"type": "t_bool"
							},
							{
								"astId": 7,
								"contract": "contracts/QueueSystem.sol:QueueSystem",
								"label": "vipPaymentTime",
								"offset": 0,
								"slot": "2",
								"type": "t_uint256"
							}
						],
						"numberOfBytes": "96"
					},
					"t_uint256": {
						"encoding": "inplace",
						"label": "uint256",
						"numberOfBytes": "32"
					}
				}
			},
			"userdoc": {
				"kind": "user",
				"methods": {
					"constructor": {
						"notice": "Constructor to initialize the owner"
					},
					"getFullQueue()": {
						"notice": "Function to get the entire queue (for debugging or admin purposes)"
					},
					"getQueueNumber(address)": {
						"notice": "Get the user's current queue number"
					},
					"getQueueSize()": {
						"notice": "Get the queue size"
					},
					"joinQueue()": {
						"notice": "Function to join the queue"
					},
					"upgradeToVIP()": {
						"notice": "Function to upgrade the user to VIP"
					}
				},
				"version": 1
			}
		}
	}
}